:020000040800F2
:1000000000180020CD0000081101000811010008AF
:1000100000000000000000000000000000000000E0
:1000200000000000000000000000000011010008B6
:10003000000000000000000011010008110100088C
:100040001101000811010008110100081101000848
:100050001101000811010008110100081101000838
:100060001101000811010008110100081101000828
:100070001101000811010008110100081101000818
:100080001101000811010008110100081101000808
:1000900011010008110100081101000811010008F8
:1000A00011010008110100081101000811010008E8
:1000B00011010008110100081101000811010008D8
:1000C0005FF808F180B500AFFEE7C046002103E00D
:1000D0000A4B5B584350043109480A4B42189A4274
:1000E000F6D3094A02E0002313600432074B9A4218
:1000F000F9D300F00FF8FFF7E5FF70478002000822
:10010000000000200000002000000020000000206F
:10011000FEE7000080B500AF1B4B1B4A12680121AF
:100120000A431A60184B184A5168184A0A405A6024
:10013000154B154A1168164A0A401A60124B124AAA
:100140001168144A0A401A600F4B0F4A5168124A4C
:100150000A405A600C4B0C4AD26A0F218A43DA6279
:10016000094B094A116B0D4A0A401A63064B064AAD
:10017000526B01218A435A63034B00229A6000F0BC
:100180000FF8BD4680BDC046001002400CB8FFF815
:10019000FFFFF6FEFFFFFBFFFFFFC0FFACFEFFFF10
:1001A00080B582B000AF00237B6000233B60314B01
:1001B000304A1268802149020A431A602D4B1A689E
:1001C00080239B0213403B607B6801337B603B686C
:1001D000002B04D17A68A023DB009A42EED1254B94
:1001E0001A6880239B02134002D001233B6001E088
:1001F00000233B603B68012B38D11F4B11221A6052
:100200001C4B1C4A52685A601A4B1A4A52685A6070
:10021000184B184A5168194A0A405A60154B154A3A
:100220005268882149030A435A60124B114A1268E6
:10023000802149040A431A60C0460E4B1A68802385
:100240009B041340F9D00B4B0A4A526803218A439E
:100250005A60084B074A526802210A435A60C04656
:10026000044B5A680C231340082BF9D1BD4602B049
:1002700080BDC0460010024000200240FF7FC0FF4A
:0400000508000000EF
:00000001FF
