:020000040800F2
:1000000000180020310B0008750B00083F0F000896
:1000100000000000000000000000000000000000E0
:10002000000000000000000000000000750B000848
:100030000000000000000000750B0008750B0008B0
:10004000750B0008750B0008750B0008750B000890
:10005000750B0008750B0008750B0008750B000880
:10006000750B0008750B0008750B0008750B000870
:10007000750B0008750B0008750B0008750B000860
:10008000750B0008750B0008750B0008190B0008AC
:10009000750B0008750B0008750B0008750B000840
:1000A000750B0008750B0008750B0008750B000830
:1000B000750B0008750B0008750B0008750B000820
:1000C0005FF808F180B582B000AF78600A00FB1CD1
:1000D0001A70FB1C1B78002B06D0094B084A51698B
:1000E0007A680A435A6106E0054B054A5269796805
:1000F000C9430A405A61C046BD4602B080BDC046F1
:100100000010024080B582B000AF78600A00FB1C8E
:100110001A70FB1C1B78002B06D0094B084AD169CA
:100120007A680A43DA6106E0054B054AD2697968C4
:10013000C9430A40DA61C046BD4602B080BDC04630
:1001400000100240B0B582B000AF02003960FB1D64
:100150001A70FB1D1B787F2B32D92F4CFB1D1B788F
:100160001A000F231340083B99082B4AFB1D1B78EC
:1001700018000F230340083B9B0806339B00D3184D
:1001800004331B68FA1D1278100003220240D200CB
:10019000FF2090400200D2431A403B689B01FF20A1
:1001A0001840FB1D1B781D0003232B40DB009840EB
:1001B00003001A438B1D9B00E31804331A6027E0E9
:1001C000164CFB1D1B785BB29B081449FA1D127874
:1001D00052B29208C03292005258F91D09780800B4
:1001E00003210140C900FF2088400100C94311409C
:1001F0003A689201FF201040FA1D12781500032280
:100200002A40D200904002000A43C0339B001A519A
:10021000C046BD4602B0B0BD00ED00E000E100E028
:1002200080B586B000AF7860396001210220FFF709
:1002300069FF0C23FB1800221A810C23FB180022F3
:100240005A807B685A1E0C23FB185A603B689BB28D
:10025000013B9AB20C23FB181A800C23FB180022D6
:100260009A720C23FB18044A1900100000F072FE69
:10027000C046BD4606B080BD0004004080B58AB0CF
:1002800000AF78601423FB1860221A801423FB1837
:1002900001225A801423FB180022DA817B68013B7B
:1002A0001A001423FB189A601423FB181D4A190026
:1002B000100000F007FF1B4B0821180000F0D4FFCE
:1002C000184B0121180000F0BDFE164B012118004B
:1002D00000F0D8FE8023DB0201211800FFF7F2FEB8
:1002E0000C23FB1800229A710C23FB1802221A71AE
:1002F0000C23FB1810221A600C23FB1801225A71E0
:100300000C23FB18084A1900100000F0E8FC064B0B
:1003100001220421180000F0B6FDC046BD460AB017
:1003200080BDC046000400400004004880B586B08F
:1003300000AF7860396080235B0001211800FFF76F
:10034000E1FE0C23FB1800221A810C23FB1810225B
:100350005A807B685A1E0C23FB185A603B689BB27C
:10036000013B9AB20C23FB181A800C23FB180022C5
:100370009A720C23FB180E4A1900100000F0EAFDD7
:100380000B4B0121180000F0C2FF094B0122012193
:10039000180000F093FF00211320FFF7D3FE044B59
:1003A0000121180000F06EFEC046BD4606B080BDBB
:1003B0000020004080B582B000AF0200FB1D1A7023
:1003C000064BFA1D127811001F220A4001219140AC
:1003D0000A001A60C046BD4602B080BD00E100E0E0
:1003E00080B582B000AF0200FB1D1A70074AFB1DEA
:1003F0001B7819001F230B40012199400B001900A5
:100400008023D150C046BD4602B080BD00E100E06F
:1004100090B5A1B000AF00237B6700233B67342376
:10042000FB18D14A13CA13C313CA13C313CA13C385
:1004300013CA13C33B1DCC4A13CA13C313CA13C335
:1004400013CA13C313CA13C300F096FBFA239A000E
:1004500096235B0111001800FFF7E2FE9623DB00F4
:100460001800FFF70BFFF0235B0064211800FFF773
:100470005DFF1320FFF79EFF0023FB67EAE0FB6FA1
:10048000180000F0D1FBFB6F012B4ED0022B00D1E6
:1004900094E0002B00D0DAE0B44B0221180000F009
:1004A000B1FC031E04D03423FB1801225A6037E04C
:1004B000AE4B2021180000F0A5FC031E04D034230D
:1004C000FB1801221A612BE0A84B4021180000F014
:1004D00099FC031E04D03423FB180122DA611FE0CB
:1004E000A24B8021180000F08DFC031E04D03423A1
:1004F000FB1801229A6213E03423FB1801225242B6
:100500005A603423FB18012252421A613423FB182B
:1005100001225242DA613423FB18012252429A62CC
:100520006423FB1801221A6091E0904B022118000D
:1005300000F068FC031E04D03423FB1801229A60EB
:1005400037E08A4B2021180000F05CFC031E04D029
:100550003423FB1801225A612BE0844B4021180000
:1005600000F050FC031E04D03423FB1801221A6251
:100570001FE07E4B8021180000F044FC031E04D0D5
:100580003423FB1801221A6013E03423FB180122E4
:1005900052429A603423FB18012252425A6134239A
:1005A000FB18012252421A623423FB1801225242E4
:1005B0001A606423FB1801225A6048E06B4B022149
:1005C000180000F01FFC031E04D03423FB18012286
:1005D000DA6037E0654B2021180000F013FC031EA1
:1005E00004D03423FB1801229A612BE05F4B402199
:1005F000180000F007FC031E04D03423FB1801226E
:100600005A621FE0594B8021180000F0FBFB031ECB
:1006100004D03423FB180122DA6213E03423FB18E0
:1006200001225242DA603423FB18012252429A61BD
:100630003423FB18012252425A623423FB18012250
:100640005242DA626423FB1801229A60C046FB6FB3
:100650000133FB67FB6F022B00DC10E76423FB1800
:100660001B68002B00D17CE06423FB185B68002B27
:1006700000D176E06423FB189B68002B00D170E06A
:100680000023FB6708E06423FB18FA6F9200002147
:10069000D150FB6F0133FB67FB6F022BF3DD0023AF
:1006A000FB675BE03B1DFA6F9200D2583423FB18C6
:1006B000F96F8900CB589A424DD03423FB18FA6F5A
:1006C0009200D358013346D1FB6F092B0FDCBB6F6F
:1006D0000133BB67BB6F032B3DDD9023DB0501229C
:1006E0002021180000F0B2FB0023BB6733E0FB6F52
:1006F0000A2B0AD11320FFF75DFE9023DB050022B1
:100700002021180000F0A2FB25E0FB6F0B2B22D16B
:100710001320FFF765FE9023DB050022202118003F
:1007200000F094FB802359009023DB050122180080
:1007300000F08CFB802399009023DB050022180039
:1007400000F084FB8023D9009023DB0500221800F1
:1007500000F07CFBC4E1FB6F0133FB67FB6F0B2BED
:10076000A0DD0023FB670FE09C1400080004004894
:100770003423FB18FA6F9200D1583B1DFA6F920098
:10078000D150FB6F0133FB67FB6F0B2BF0DD3B1D83
:100790001B68012B1CD19023DB05002201211800CE
:1007A00000F054FB9023DB0500220221180000F02A
:1007B0004DFB9023DB0500220421180000F046FBCE
:1007C0009023DB0500220821180000F03FFB53E6D0
:1007D0003B1D5B68012B1CD19023DB05012201210D
:1007E000180000F033FB9023DB05002202211800E3
:1007F00000F02CFB9023DB0500220421180000F000
:1008000025FB9023DB0500220821180000F01EFBC9
:1008100032E63B1D9B68012B1CD19023DB05002297
:100820000121180000F012FB9023DB0501220221B8
:10083000180000F00BFB9023DB05002204211800B8
:1008400000F004FB9023DB0500220821180000F0D3
:10085000FDFA11E63B1DDB68012B1CD19023DB0563
:1008600001220121180000F0F1FA9023DB0501229A
:100870000221180000F0EAFA9023DB05002204218F
:10088000180000F0E3FA9023DB050022082118008D
:1008900000F0DCFAF0E53B1D1B69012B1CD1902315
:1008A000DB0500220121180000F0D0FA9023DB05BF
:1008B00000220221180000F0C9FA9023DB05012272
:1008C0000421180000F0C2FA9023DB050022082161
:1008D000180000F0BBFACFE53B1D5B69012B1CD172
:1008E0009023DB0501220121180000F0AFFA9023CC
:1008F000DB0500220221180000F0A8FA9023DB0596
:1009000001220421180000F0A1FA9023DB05002247
:100910000821180000F09AFAAEE53B1D9B69012BF7
:100920001CD19023DB0500220121180000F08EFA73
:100930009023DB0501220221180000F087FA9023A2
:10094000DB0501220421180000F080FA9023DB056A
:1009500000220821180000F079FA8DE53B1DDB69C3
:10096000012B1CD19023DB0501220121180000F08E
:100970006DFA9023DB0501220221180000F066FACF
:100980009023DB0501220421180000F05FFA902378
:10099000DB0500220821180000F058FA6CE53B1D29
:1009A0001B6A012B1CD19023DB05002201211800BA
:1009B00000F04CFA9023DB0500220221180000F021
:1009C00045FA9023DB0500220421180000F03EFACE
:1009D0009023DB0501220821180000F037FA4BE5CF
:1009E0003B1D5B6A012B1CD19023DB0501220121F9
:1009F000180000F02BFA9023DB05002202211800DA
:100A000000F024FA9023DB0500220421180000F0F6
:100A10001DFA9023DB0501220821180000F016FAC8
:100A20002AE53B1D9B6A012B1CD19023DB0500228C
:100A30000121180000F00AFA9023DB0501220221AF
:100A4000180000F003FA9023DB05002204211800AF
:100A500000F0FCF99023DB0501220821180000F0CA
:100A6000F5F909E53B1DDB6A012B1CD19023DB0561
:100A700001220121180000F0E9F99023DB05012291
:100A80000221180000F0E2F99023DB050022042186
:100A9000180000F0DBF99023DB0501220821180083
:100AA00000F0D4F9E8E49023DB05002201211800CE
:100AB00000F0CCF99023DB0500220221180000F0A1
:100AC000C5F99023DB0500220421180000F0BEF9CF
:100AD0009023DB0500220821180000F0B7F9CBE4D1
:100AE0000C4B8021180000F08DF9031EF8D0002374
:100AF000FB6708E03B1DFA6F920001214942D1508B
:100B0000FB6F0133FB67FB6F0B2BF3DD1320FFF74C
:100B100051FCB1E40004004880B500AF034B012153
:100B2000180000F0F4FBC046BD4680BD0020004028
:100B3000002103E00A4B5B584350043109480A4B3B
:100B400042189A42F6D3094A02E0002313600432A5
:100B5000074B9A42F9D300F0EBFBFFF759FC7047C3
:100B6000CC1400080000002000000020000000203D
:100B700000000020FEE7000080B584B000AF8023B5
:100B80009B0201211800FFF79DFA8023DB0201215F
:100B90001800FFF797FA0823FB18E022D2001A602A
:100BA0000823FB1801221A710823FB180122DA71AD
:100BB0000823FB1801225A710823FA189023DB0539
:100BC0001100180000F08BF83B00E2221A603B0095
:100BD00000221A713B000222DA713B0001225A7195
:100BE0003B00104A1900100000F079F80823FB18A8
:100BF0002F221A600823FB1801221A710823FB1800
:100C00000122DA710823FB1801225A710823FA180D
:100C10009023DB051100180000F061F8C046BD46C6
:100C200004B080BD0004004880B582B000AF786099
:100C30007B68012B1DD0022B34D0002B00D04AE062
:100C4000802359009023DB050122180000F0FEF8F4
:100C5000802399009023DB050022180000F0F6F8AD
:100C60008023D9009023DB050022180000F0EEF865
:100C700031E0802359009023DB050022180000F0AA
:100C8000E5F8802399009023DB050122180000F08D
:100C9000DDF88023D9009023DB050022180000F046
:100CA000D5F818E0802359009023DB0500221800B6
:100CB00000F0CCF8802399009023DB050022180077
:100CC00000F0C4F88023D9009023DB05012218002E
:100CD00000F0BCF8C046C046BD4602B080BD80B53D
:100CE00086B000AF7860396000237B6100233B61F0
:100CF0000023FB6000237B617CE001227B699A403A
:100D000013003B613B681B683A691340FB60FA685B
:100D10003B699A426BD13B681B79012B03D03B683E
:100D20001B79022B34D17B689B687A6952000321BE
:100D300091400A00D2431A407B689A607B689A68A7
:100D40003B685B7919007B695B0099400B001A4393
:100D50007B689A607B689B889BB27A6992B211002B
:100D600001228A4092B2D24392B213409AB27B6877
:100D70009A807B689B889AB23B689B7919007B6953
:100D80009BB299400B009BB213439AB27B689A8046
:100D90007B681B687A695200032191400A00D243A4
:100DA0001A407B681A607B681A683B681B791900D7
:100DB0007B695B0099400B001A437B681A607B6873
:100DC000DB687A6992B25200032191400A00D24353
:100DD0001A407B68DA607B68DA683B68DB79190067
:100DE0007B695B0099400B001A437B68DA607B6982
:100DF00001337B617B690F2B00D87EE7C046BD467F
:100E000006B080BD80B584B000AF78600A00BB1C1E
:100E10001A800F23FB1800221A707B681B8A9BB272
:100E2000BA1C128813409BB2002B04D00F23FB186E
:100E300001221A7003E00F23FB1800221A700F23FF
:100E4000FB181B781800BD4604B080BD80B582B089
:100E500000AF786008001100BB1C021C1A807B1CCC
:100E60000A1C1A707B1C1B78002B04D0BB1C1A8830
:100E70007B689A6103E07B68BA1C12881A85C046B9
:100E8000BD4602B080BD80B584B000AF7860080078
:100E90001100BB1C021C1A807B1C0A1C1A70002348
:100EA000FB600023BB607B1C1A78BB1C1B880721DE
:100EB0000B409B009A401300FB60BB1C1B88DB08A7
:100EC0009BB21800BB1C1B88DB089BB21A007B6816
:100ED00008329200D358BA1C128807210A409200A7
:100EE0000F2191400A00D2431A4011007B68020092
:100EF00008329200D150BB1C1B88DB089BB21A0041
:100F00007B6808329200D258FB681343BB60BB1C5D
:100F10001B88DB089BB21A007B6808329200B96814
:100F2000D150C046BD4604B080BD0000ABBE01E05C
:100F300000207047002A00D01060012070470698FA
:100F40000188034A914202D1043006907047FEE7BF
:100F5000ABBE000080B584B000AF786039600E236E
:100F6000FB1800221A800E23FB187A6812881A8058
:100F70007B682D4A934208D07A688023DB059A4229
:100F800003D07B68294A934210D10E23FB180E220E
:100F9000BA18128870218A431A803B6859880E2338
:100FA000FB180E22BA1812880A431A807B68204A5E
:100FB000934210D00E23FB180E22BA1812881D4936
:100FC0000A401A803B6819890E23FB180E22BA18B2
:100FD00012880A431A807B680E22BA1812881A8077
:100FE0003B685A687B68DA623B681A887B681A85B6
:100FF0007B680D4A93420BD07B680F4A934207D01F
:101000007B680E4A934203D07B680D4A934204D119
:101010003B689B7A9AB27B681A867B6801229A8227
:10102000C046BD4604B080BD002C01400004004015
:1010300000100040FFFCFFFF004001400044014061
:101040000048014080B582B000AF78600A00FB1C08
:101050001A70FB1C1B78002B08D07B681B889BB286
:10106000802213439AB27B681A8007E07B681B8852
:101070009BB2802293439AB27B681A80C046BD46D9
:1010800002B080BD80B582B000AF78600A00FB1C62
:101090001A70FB1C1B78002B08D07B681B889BB246
:1010A000012213439AB27B681A8007E07B681B8891
:1010B0009BB2012293439AB27B681A80C046BD4618
:1010C00002B080BD80B584B000AF786039600A237B
:1010D000FB1800221A800E23FB1800221A800C2312
:1010E000FB1800221A807B681B8C9BB20122934361
:1010F0009AB27B681A840E23FB187A68128C1A80C5
:101100000C23FB187A6892881A800A23FB187A68E5
:10111000128B1A800A23FB180A22BA18128870212F
:101120008A431A800A23FB180A22BA18128803215C
:101130008A431A803B6819880A23FB180A22BA18C6
:1011400012880A431A800E23FB180E22BA1812883E
:1011500002218A431A803B6899890E23FB180E22CC
:10116000BA1812880A431A803B6859880E23FB1864
:101170000E22BA1812880A431A807B68344A9342B6
:101180000BD07B68334A934207D07B68324A934244
:1011900003D07B68314A934243D10E23FB180E22C1
:1011A000BA18128808218A431A803B68D9890E230D
:1011B000FB180E22BA1812880A431A800E23FB1855
:1011C0000E22BA18128804218A431A803B68998833
:1011D0000E23FB180E22BA1812880A431A800C2319
:1011E000FB180C22BA1812881D490A401A800C23D9
:1011F000FB180C22BA1812881A490A401A803B6858
:10120000198A0C23FB180C22BA1812880A431A8078
:101210003B68598A0C23FB180C22BA1812880A431F
:101220001A807B680C22BA1812889A807B680A227E
:10123000BA1812881A833B689A687B685A637B687D
:101240000E22BA1812881A84C046BD4604B080BD6A
:10125000002C014000400140004401400048014092
:10126000FFFEFFFFFFFDFFFF80B584B000AF786099
:101270000A00BB1C1A800E23FB1800221A800E23C2
:10128000FB187A68128B1A800E23FB180E22BA18EC
:10129000128808218A431A800E23FB180E22B918DF
:1012A000BA1C098812880A431A807B680E22BA1871
:1012B00012881A83C046BD4604B080BD80B582B096
:1012C00000AF786008001100BB1C021C1A807B1C58
:1012D0000A1C1A707B1C1B78002B09D07B689B8929
:1012E0009AB2BB1C1B8813439AB27B689A810AE0AE
:1012F0007B689B899BB2BA1C1288D24392B213407E
:101300009AB27B689A81C046BD4602B080BD80B566
:1013100082B000AF78600A00BB1C1A80BB1C1B881F
:10132000DB439AB27B681A82C046BD4602B080BDDC
:1013300080B500AF1B4B1B4A126801210A431A609B
:10134000184B184A526818490A405A60154B154AFA
:10135000126816490A401A60124B124A1268144960
:101360000A401A600F4B0F4A526812490A405A60ED
:101370000C4B0C4AD26A0F218A43DA62094B094AA4
:10138000126B0D490A401A63064B064A526B012143
:101390008A435A63034B00229A6000F00FF8C0465C
:1013A000BD4680BD001002400CB8FFF8FFFFF6FEFE
:1013B000FFFFFBFFFFFFC0FFACFEFFFF80B582B069
:1013C00000AF00237B6000233B60314B304A126842
:1013D000802149020A431A602D4B1A6880239B0220
:1013E00013403B607B6801337B603B68002B04D17A
:1013F0007A68A023DB009A42EED1254B1A6880233D
:101400009B02134002D001233B6001E000233B60BC
:101410003B68012B38D11F4B11221A601C4B1C4A10
:1014200052685A601A4B1A4A52685A60184B184A46
:10143000526819490A405A60154B154A526888216A
:1014400049030A435A60124B114A12688021490429
:101450000A431A60C0460E4B1A6880239B0413404F
:10146000F9D00B4B0A4A526803218A435A60084B51
:10147000074A526802210A435A60C046044B5B681F
:101480000C221340082BF9D1C046BD4602B080BDE6
:101490000010024000200240FF7FC0FFFFFFFFFF5F
:1014A000FFFFFFFFFFFFFFFFFFFFFFFFFFFFFFFF4C
:1014B000FFFFFFFFFFFFFFFFFFFFFFFFFFFFFFFF3C
:0C14C000FFFFFFFFFFFFFFFFFFFFFFFF2C
:0400000508000000EF
:00000001FF
