:020000040800F2
:100000000018002051040008950400089504000819
:1000100000000000000000000000000000000000E0
:10002000000000000000000000000000950400082F
:10003000000000000000000095040008950400087E
:10004000950400089504000895040008950400082C
:10005000950400089504000895040008950400081C
:10006000950400089504000895040008950400080C
:1000700095040008950400089504000895040008FC
:100080009504000895040008950400081D04000864
:1000900095040008950400089504000895040008DC
:1000A00095040008950400089504000895040008CC
:1000B00095040008950400089504000895040008BC
:1000C0005FF808F180B582B000AF78600A1CFB1CB5
:1000D0001A70FB1C1B78002B06D0084B074A51698D
:1000E0007A680A435A6106E0044B044A5269796807
:1000F000C9430A405A61BD4602B080BD00100240AB
:1001000080B582B000AF78600A1CFB1C1A70FB1C23
:100110001B78002B06D0084B074AD1697A680A433E
:10012000DA6106E0044B044AD2697968C9430A409F
:10013000DA61BD4602B080BD00100240B0B582B0A9
:1001400000AF021C3960FB1D1A70FB1D1B787F2B52
:1001500032D93049FB1D1B781A1C0F231340083B72
:1001600098082C4AFB1D1B781C1C0F232340083BBE
:100170009B0806339B00D3185B68FA1D1278141C89
:1001800003222240D200FF24251C95402A1CD24382
:100190001A403B689C01FF231C40FB1D1B781D1C63
:1001A00003232B40DB00251C9D402B1C1A43831D81
:1001B0009B00CB185A6029E0174BFA1D127852B2F7
:1001C00092081549F81D007840B28008C0308000C0
:1001D0004158F81D0078041C03202040C000FF2473
:1001E000251C8540281CC043084039688C01FF212C
:1001F0000C40F91D09780D1C03212940C900251C5C
:100200008D40291C0143C0329200D150BD4602B03E
:10021000B0BDC04600ED00E000E100E080B586B072
:1002200000AF7860396002200121FFF769FF3B1CB5
:100230000C3300221A813B1C0C3300225A807B684D
:100240005A1E3B1C0C335A603B689BB2013B9AB26E
:100250003B1C0C331A803B1C0C3300229A72054A5B
:100260003B1C0C33101C191C00F0FAFABD4606B0FA
:1002700080BDC0460004004080B58AB000AF786001
:100280003B1C143360221A803B1C143301225A8019
:100290003B1C14330022DA817B68013B1A1C3B1C97
:1002A00014339A601D4A3B1C1433101C191C00F0B7
:1002B0008FFB1A4B181C082100F05CFC174B181C14
:1002C000012100F045FB154B181C012100F060FBDB
:1002D0008023DB02181C0121FFF7F4FE3B1C0C33CA
:1002E00000229A713B1C0C3302221A713B1C0C3306
:1002F00010221A603B1C0C3301225A71084A3B1C25
:100300000C33101C191C00F0A9F9054B181C042112
:10031000012200F057FABD460AB080BD000400403B
:100320000004004880B586B000AF78603960802353
:100330005B00181C0121FFF7E3FE3B1C0C3300227D
:100340001A813B1C0C3310225A807B685A1E3B1CBE
:100350000C335A603B689BB2013B9AB23B1C0C3396
:100360001A803B1C0C3300229A720F4A3B1C0C3340
:10037000101C191C00F074FA0B4B181C012100F022
:1003800047FC094B181C0121012200F01DFC132021
:100390000021FFF7D3FE044B181C012100F0F8FAEE
:1003A000BD4606B080BDC0460020004080B582B08A
:1003B00000AF021CFB1D1A70064BFA1D1278111CAF
:1003C0001F220A400121081C9040021C1A60BD46F1
:1003D00002B080BD00E100E080B500AF00F05CF845
:1003E00096235A01FA239B00101C191CFFF716FFD5
:1003F0009623DB00181CFFF73FFF96235B01181CB8
:100400000A21FFF78FFF1320FFF7D0FF024B1B6875
:10041000181C00F095F8F9E70000002080B500AF47
:10042000094B1B685A1C084B1A60074B1B68042BAE
:1004300002D1054B00221A60044B181C012100F068
:10044000E7FBBD4680BDC046000000200020004004
:10045000002103E00A4B5B584350043109480A4B22
:1004600042189A42F6D3094A02E00023136004328C
:10047000074B9A42F9D300F0DBFBFFF7ADFF704763
:100480009C0D00080000002000000020000000205B
:1004900004000020FEE7000080B586B000AF802396
:1004A0009B02181C0121FFF70DFE3B1C10338F220D
:1004B0001A603B1C103301221A713B1C10330122BD
:1004C000DA713B1C103301225A719023DA053B1C70
:1004D0001033101C191C00F0C1F83B1C08330F220C
:1004E0001A603B1C083301221A713B1C083301229D
:1004F0005A71124A3B1C0833101C191C00F0AEF84C
:100500003B1C70221A603B1C00221A713B1C01220A
:10051000DA713B1C01225A719023DA053B1C101C36
:10052000191C00F09BF89023DB05181C8021002289
:1005300000F030F9BD4606B080BDC046000400485A
:1005400080B584B000AF786001235B42FB607B68BC
:10055000012B25D002DC002B05D078E0022B3CD00B
:10056000032B57D073E09023DB05181C01210122D7
:1005700000F010F99023DB05181C0221002200F086
:1005800009F99023DB05181C0421002200F002F970
:100590009023DB05181C0821002200F0FBF857E02F
:1005A0009023DB05181C0121002200F0F3F89023B2
:1005B000DB05181C0221012200F0ECF89023DB057A
:1005C000181C0421002200F0E5F89023DB05181C1C
:1005D0000821002200F0DEF83AE09023DB05181C29
:1005E0000121002200F0D6F89023DB05181C02211F
:1005F000002200F0CFF89023DB05181C0421012213
:1006000000F0C8F89023DB05181C0821002200F038
:10061000C1F81DE09023DB05181C0121002200F029
:10062000B9F89023DB05181C0221002200F0B2F873
:100630009023DB05181C0421002200F0ABF8902366
:10064000DB05181C0821012200F0A4F8FFE7C046D2
:10065000FB68181CBD4604B080BDC04680B586B09E
:1006600000AF7860396000237B6100233B61002389
:10067000FB6000237B6185E07B690122101C9840B0
:10068000031C3B613B681B683A691340FB60FA68D6
:100690003B699A4273D13B681B79012B03D03B68BD
:1006A0001B79022B38D17B689B687A695200032141
:1006B000081C9040021CD2431A407B689A607B68F9
:1006C0009A683B685B79191C7B695B00081C984041
:1006D000031C1A437B689A607B689B889BB27A698B
:1006E00092B20121081C9040021C92B2D24392B2F5
:1006F00013409AB27B689A807B689B889AB23B6869
:100700009B79191C7B699BB2081C9840031C9BB207
:1007100013439AB27B689A807B681B687A6952009F
:100720000321081C9040021CD2431A407B681A60C7
:100730007B681A683B681B79191C7B695B00081C85
:100740009840031C1A437B681A607B68DB687A69EF
:1007500092B252000321081C9040021CD2431A405E
:100760007B68DA607B68DA683B68DB79191C7B6937
:100770005B00081C9840031C1A437B68DA607B69A5
:1007800001337B617B690F2B00D875E7BD4606B04E
:1007900080BDC04680B582B000AF7860BB1C1980B8
:1007A0007B1C1A707B1C1B78002B04D0BB1C1A8886
:1007B0007B689A6103E07B68BA1C12881A85BD4683
:1007C00002B080BD90B585B000AF7860BB1C1980C9
:1007D0007B1C1A700023FB600023BB607B1C1A7813
:1007E000BB1C198807230B409B00111C99400B1C54
:1007F000FB60BB1C1B88DB089BB21A1CBB1C1B8844
:10080000DB089BB2191C7B6808318900CB58B91CE6
:1008100008880721014089000F20041C8C40211CFE
:10082000C94319407B6808329200D150BB1C1B8819
:10083000DB089BB21A1C7B6808329200D258FB6816
:100840001343BB60BB1C1B88DB089BB21A1C7B6874
:1008500008329200B968D150BD4605B090BDC0467F
:1008600080B584B000AF786039603B1C0E33002245
:100870001A803B1C0E337A6812881A807A682D4BD6
:100880009A4208D07A688023DB059A4203D07A68BE
:10089000294B9A4210D13B1C0E333A1C0E3212885F
:1008A00070218A431A803B6859883B1C0E333A1CDE
:1008B0000E3212880A431A807A68204B9A4210D06E
:1008C0003B1C0E333A1C0E3211881D4A0A401A8016
:1008D0003B6819893B1C0E333A1C0E3212880A43BE
:1008E0001A807B683A1C0E3212881A803B685A685C
:1008F0007B68DA623B681A887B681A857A680D4BD8
:100900009A420BD07A680F4B9A4207D07A680E4B06
:100910009A4203D07A680D4B9A4204D13B689B7A85
:100920001A1C7B681A867B6801229A82BD4604B035
:1009300080BDC046002C0140000400400010004073
:10094000FFFCFFFF0040014000440140004801401F
:1009500080B582B000AF78600A1CFB1C1A70FB1CCB
:100960001B78002B08D07B681B889BB28022134326
:100970009AB27B681A8007E07B681B889BB2802252
:1009800093439AB27B681A80BD4602B080BDC046D0
:1009900080B582B000AF78600A1CFB1C1A70FB1C8B
:1009A0001B78002B08D07B681B889BB20122134365
:1009B0009AB27B681A8007E07B681B889BB2012291
:1009C00093439AB27B681A80BD4602B080BDC04690
:1009D00080B584B000AF786039603B1C0A330022D8
:1009E0001A803B1C0E3300221A803B1C0C33002261
:1009F0001A807B681B8C9BB2012293439AB27B685E
:100A00001A843B1C0E337A68128C1A803B1C0C3300
:100A10007A6892881A803B1C0A337A68128B1A8093
:100A20003B1C0A333A1C0A32128870218A431A800E
:100A30003B1C0A333A1C0A32128803218A431A806B
:100A40003B6819883B1C0A333A1C0A3212880A4355
:100A50001A803B1C0E333A1C0E32128802218A4344
:100A60001A803B6899893B1C0E333A1C0E3212885F
:100A70000A431A803B6859883B1C0E333A1C0E32DD
:100A800012880A431A807A68344B9A420BD07A68EB
:100A9000334B9A4207D07A68324B9A4203D07A6835
:100AA000314B9A4243D13B1C0E333A1C0E32128812
:100AB00008218A431A803B68D9893B1C0E333A1CB3
:100AC0000E3212880A431A803B1C0E333A1C0E3237
:100AD000128804218A431A803B6899883B1C0E3394
:100AE0003A1C0E3212880A431A803B1C0C333A1C03
:100AF0000C3211881D4A0A401A803B1C0C333A1CE8
:100B00000C3211881A4A0A401A803B68198A3B1C29
:100B10000C333A1C0C3212880A431A803B68598AFB
:100B20003B1C0C333A1C0C3212880A431A807B6837
:100B30003A1C0C3212889A807B683A1C0A3212885E
:100B40001A833B689A687B685A637B683A1C0E324A
:100B500012881A84BD4604B080BDC046002C0140F6
:100B6000004001400044014000480140FFFEFFFFFB
:100B7000FFFDFFFF80B584B000AF78600A1CBB1C8E
:100B80001A803B1C0E3300221A803B1C0E337A68FD
:100B9000128B1A803B1C0E333A1C0E32128808212D
:100BA0008A431A803B1C0E33391C0E31BA1C09884B
:100BB00012880A431A807B683A1C0E3212881A8304
:100BC000BD4604B080BDC04680B582B000AF78603D
:100BD000BB1C19807B1C1A707B1C1B78002B09D056
:100BE0007B689B899AB2BB1C1B8813439AB27B68B3
:100BF0009A810AE07B689B899BB2BA1C1288D24317
:100C000092B213409AB27B689A81BD4602B080BD11
:100C100080B582B000AF78600A1CBB1C1A80BB1C78
:100C20001B88DB439AB27B681A82BD4602B080BD46
:100C300080B500AF1B4B1B4A126801210A431A60A2
:100C4000184B184A5168184A0A405A60154B154A01
:100C50001168164A0A401A60124B124A1168144A67
:100C60000A401A600F4B0F4A5168124A0A405A60F4
:100C70000C4B0C4AD26A0F218A43DA62094B094AAB
:100C8000116B0D4A0A401A63064B064A526B01214A
:100C90008A435A63034B00229A6000F00FF8BD4666
:100CA00080BDC046001002400CB8FFF8FFFFF6FE02
:100CB000FFFFFBFFFFFFC0FFACFEFFFF80B582B070
:100CC00000AF00237B6000233B60314B304A126849
:100CD000802149020A431A602D4B1A6880239B0227
:100CE00013403B607B6801337B603B68002B04D181
:100CF0007A68A023DB009A42EED1254B1A68802344
:100D00009B02134002D001233B6001E000233B60C3
:100D10003B68012B38D11F4B11221A601C4B1C4A17
:100D200052685A601A4B1A4A52685A60184B184A4D
:100D30005168194A0A405A60154B154A5268882171
:100D400049030A435A60124B114A12688021490430
:100D50000A431A60C0460E4B1A6880239B04134056
:100D6000F9D00B4B0A4A526803218A435A60084B58
:100D7000074A526802210A435A60C046044B5A6827
:100D80000C231340082BF9D1BD4602B080BDC046EC
:0C0D90000010024000200240FF7FC0FF66
:0400000508000000EF
:00000001FF
