:020000040800F2
:1000000000180020490900088D090008A70D000804
:1000100000000000000000000000000000000000E0
:100020000000000000000000000000008D09000832
:1000300000000000000000008D0900088D09000884
:100040008D0900088D0900088D0900088D09000838
:100050008D0900088D0900088D0900088D09000828
:100060008D0900088D0900088D0900088D09000818
:100070008D0900088D0900088D0900088D09000808
:100080008D0900088D0900088D0900088D090008F8
:100090008D0900088D0900088D0900088D090008E8
:1000A0008D0900088D0900088D0900088D090008D8
:1000B0008D0900088D0900088D0900088D090008C8
:1000C0005FF808F180B582B000AF78600A00FB1CD1
:1000D0001A70FB1C1B78002B06D0094B084A51698B
:1000E0007A680A435A6106E0054B054A5269796805
:1000F000C9430A405A61C046BD4602B080BDC046F1
:100100000010024080B582B000AF78600A00FB1C8E
:100110001A70FB1C1B78002B06D0094B084AD169CA
:100120007A680A43DA6106E0054B054AD2697968C4
:10013000C9430A40DA61C046BD4602B080BDC04630
:100140000010024080B586B000AF786039600121B0
:100150000220FFF7D7FF0C23FB1800221A810C2383
:10016000FB1800225A807B685A1E0C23FB185A6029
:100170003B689BB2013B9AB20C23FB181A800C23FC
:10018000FB1800229A720C23FB18044A1900100075
:1001900000F014FEC046BD4606B080BD000400401D
:1001A00080B58AB000AF78601423FB1860221A80F3
:1001B0001423FB1801225A801423FB180022DA8131
:1001C0007B68013B1A001423FB189A601423FB1868
:1001D0001D4A1900100000F0A9FE1B4B0821180051
:1001E00000F076FF184B0121180000F05FFE164B5F
:1001F0000121180000F07AFE8023DB0201211800A3
:10020000FFF760FF0C23FB1800229A710C23FB18E8
:1002100002221A710C23FB1810221A600C23FB18FF
:1002200001225A710C23FB18084A1900100000F033
:100230008AFC064B01220421180000F058FDC0463C
:10024000BD460AB080BDC04600040040000400481E
:1002500090B59FB000AF00233B673423FB18CE4A14
:1002600013CA13C313CA13C313CA13C313CA13C3C2
:100270003B1DC94A13CA13C313CA13C313CA13C3FA
:1002800013CA13C300F084FBFA239A0096235B0180
:1002900011001800FFF756FF9623DB001800FFF748
:1002A0007FFF00237B67EAE07B6F180000F0F0FB24
:1002B0007B6F012B4ED0022B00D194E0002B00D09D
:1002C000DAE0B64B0221180000F0D0FC031E04D087
:1002D0003423FB1801225A6037E0B04B202118006C
:1002E00000F0C4FC031E04D03423FB1801221A6161
:1002F0002BE0AA4B4021180000F0B8FC031E04D0EC
:100300003423FB180122DA611FE0A44B802118007E
:1003100000F0ACFC031E04D03423FB1801229A62C7
:1003200013E03423FB18012252425A603423FB1895
:10033000012252421A613423FB1801225242DA612F
:100340003423FB18012252429A626423FB180122D3
:100350001A6091E0914B0221180000F087FC031E07
:1003600004D03423FB1801229A6037E08B4B202104
:10037000180000F07BFC031E04D03423FB1801227C
:100380005A612BE0854B4021180000F06FFC031EE2
:1003900004D03423FB1801221A621FE07F4B802116
:1003A000180000F063FC031E04D03423FB18012264
:1003B0001A6013E03423FB18012252429A6034235E
:1003C000FB18012252425A613423FB180122524287
:1003D0001A623423FB18012252421A606423FB186C
:1003E00001225A6048E06D4B0221180000F03EFCEB
:1003F000031E04D03423FB180122DA6037E0674B78
:100400002021180000F032FC031E04D03423FB1816
:1004100001229A612BE0614B4021180000F026FC7C
:10042000031E04D03423FB1801225A621FE05B4BE9
:100430008021180000F01AFC031E04D03423FB189E
:100440000122DA6213E03423FB1801225242DA60FF
:100450003423FB18012252429A613423FB180122F3
:1004600052425A623423FB1801225242DA62642358
:10047000FB1801229A60C0467B6F01337B677B6F5C
:10048000022B00DC10E76423FB181B68002B00D153
:100490007EE06423FB185B68002B00D178E06423C6
:1004A000FB189B68002B00D172E000237B6708E0FB
:1004B0006423FB187A6F92000021D1507B6F0133C7
:1004C0007B677B6F022BF3DD00237B675DE03B1DC9
:1004D0007A6F9200D2583423FB18796F8900CB5879
:1004E0009A424FD03423FB187A6F9200D3580133CD
:1004F00048D17B6F092B15DC00233B670BE03B6F7A
:100500005A1C274B9200D158254B3A6F9200D1507C
:100510003B6F01333B673B6F022BF0DD204B7A6F63
:10052000DA602FE07B6F0A2B07D19023DB050022D6
:100530002021180000F0BEFB24E07B6F0B2B21D1A3
:100540009023DB0500222021180000F0B3FB80235C
:1005500059009023DB050122180000F0ABFB80233B
:1005600099009023DB050022180000F0A3FB8023F4
:10057000D9009023DB050022180000F09BFB00F05F
:100580005FFAC7E17B6F01337B677B6F0B2B9EDDCF
:1005900000237B6712E0C046901200080004004868
:1005A000100000203423FB187A6F9200D1583B1DB5
:1005B0007A6F9200D1507B6F01337B677B6F0B2B7F
:1005C000F0DD3B1D1B68012B1CD19023DB050022B5
:1005D0000121180000F06EFB9023DB0500220221B0
:1005E000180000F067FB9023DB05002204211800AF
:1005F00000F060FB9023DB0500220821180000F0CA
:1006000059FB4EE63B1D5B68012B1CD19023DB059B
:1006100001220121180000F04DFB9023DB05002290
:100620000221180000F046FB9023DB050022042184
:10063000180000F03FFB9023DB0500220821180082
:1006400000F038FB2DE63B1D9B68012B1CD190234D
:10065000DB0500220121180000F02CFB9023DB05B4
:1006600001220221180000F025FB9023DB05002267
:100670000421180000F01EFB9023DB050022082156
:10068000180000F017FB0CE63B1DDB68012B1CD1AA
:100690009023DB0501220121180000F00BFB9023C1
:1006A000DB0501220221180000F004FB9023DB058A
:1006B00000220421180000F0FDFA9023DB0500223F
:1006C0000821180000F0F6FAEBE53B1D1B69012B31
:1006D0001CD19023DB0500220121180000F0EAFA6A
:1006E0009023DB0500220221180000F0E3FA90239A
:1006F000DB0501220421180000F0DCFA9023DB0561
:1007000000220821180000F0D5FACAE53B1D5B69FC
:10071000012B1CD19023DB0501220121180000F0E0
:10072000C9FA9023DB0500220221180000F0C2FA6A
:100730009023DB0501220421180000F0BBFA90236E
:10074000DB0500220821180000F0B4FAA9E53B1DE2
:100750009B69012B1CD19023DB050022012118008D
:1007600000F0A8FA9023DB0501220221180000F016
:10077000A1FA9023DB0501220421180000F09AFA67
:100780009023DB0500220821180000F093FA88E589
:100790003B1DDB69012B1CD19023DB0501220121CC
:1007A000180000F087FA9023DB05012202211800CF
:1007B00000F080FA9023DB0501220421180000F0EC
:1007C00079FA9023DB0500220821180000F072FA64
:1007D00067E53B1D1B6A012B1CD19023DB05002222
:1007E0000121180000F066FA9023DB0500220221A7
:1007F000180000F05FFA9023DB05002204211800A6
:1008000000F058FA9023DB0501220821180000F0BF
:1008100051FA46E53B1D5B6A012B1CD19023DB0599
:1008200001220121180000F045FA9023DB05002287
:100830000221180000F03EFA9023DB05002204217B
:10084000180000F037FA9023DB0501220821180078
:1008500000F030FA25E53B1D9B6A012B1CD190234B
:10086000DB0500220121180000F024FA9023DB05AB
:1008700001220221180000F01DFA9023DB0500225E
:100880000421180000F016FA9023DB05012208214C
:10089000180000F00FFA04E53B1DDB6A012B1CD1A8
:1008A0009023DB0501220121180000F003FA9023B8
:1008B000DB0501220221180000F0FCF99023DB0582
:1008C00000220421180000F0F5F99023DB05012235
:1008D0000821180000F0EEF9E3E49023DB05002284
:1008E0000121180000F0E6F99023DB050022022127
:1008F000180000F0DFF99023DB0500220421180026
:1009000000F0D8F99023DB0500220821180000F040
:10091000D1F9C6E40B4B8021180000F0A7F9031EA3
:10092000F8D000237B6708E03B1D7A6F920001211D
:100930004942D1507B6F01337B677B6F0B2BF3DD1B
:10094000AFE4C04600040048002103E00A4B5B58B6
:100950004350043109480A4B42189A42F6D3094AD7
:1009600002E0002313600432074B9A42F9D300F0EF
:10097000D9FBFFF76DFC7047C01200080000002093
:10098000200000202000002020000020FEE70000C2
:1009900080B584B000AF80239B0201211800FFF7CF
:1009A00091FB8023DB0201211800FFF78BFB08235A
:1009B000FB18E022D2001A600823FB1801221A71EA
:1009C0000823FB180122DA710823FB1801225A714F
:1009D0000823FA189023DB051100180000F0B3F883
:1009E0003B00E2221A603B0000221A713B00022207
:1009F000DA713B0001225A713B00104A19001000C5
:100A000000F0A1F80823FB182F221A600823FB1816
:100A100001221A710823FB180122DA710823FB183E
:100A200001225A710823FA189023DB0511001800DF
:100A300000F089F8C046BD4604B080BD00040048FF
:100A400080B500AF104B1A68104B1B689A4218D142
:100A50000D4B5A680D4B5B689A4212D10A4B9A684B
:100A60000A4B9B689A420CD1074BDA68074BDB684C
:100A70009A4206D19023DB0501222021180000F0C4
:100A800019F9C046BD4680BD0000002010000020BE
:100A900080B582B000AF78607B68012B1DD0022B3F
:100AA00034D0002B00D04AE0802359009023DB058E
:100AB0000122180000F0FEF8802399009023DB0546
:100AC0000022180000F0F6F88023D9009023DB05FF
:100AD0000022180000F0EEF831E080235900902346
:100AE000DB050022180000F0E5F880239900902330
:100AF000DB050122180000F0DDF88023D9009023E7
:100B0000DB050022180000F0D5F818E0802359001A
:100B10009023DB050022180000F0CCF88023990018
:100B20009023DB050022180000F0C4F88023D900D0
:100B30009023DB050122180000F0BCF8C046C04637
:100B4000BD4602B080BD80B586B000AF7860396028
:100B500000237B6100233B610023FB6000237B615A
:100B60007CE001227B699A4013003B613B681B6873
:100B70003A691340FB60FA683B699A426BD13B6863
:100B80001B79012B03D03B681B79022B34D17B6886
:100B90009B687A695200032191400A00D2431A40AF
:100BA0007B689A607B689A683B685B7919007B690F
:100BB0005B0099400B001A437B689A607B689B88B6
:100BC0009BB27A6992B2110001228A4092B2D2435A
:100BD00092B213409AB27B689A807B689B889AB2E3
:100BE0003B689B7919007B699BB299400B009BB2D3
:100BF00013439AB27B689A807B681B687A695200BB
:100C0000032191400A00D2431A407B681A607B6836
:100C10001A683B681B7919007B695B0099400B00DF
:100C20001A437B681A607B68DB687A6992B252006B
:100C3000032191400A00D2431A407B68DA607B6846
:100C4000DA683B68DB7919007B695B0099400B002F
:100C50001A437B68DA607B6901337B617B690F2B08
:100C600000D87EE7C046BD4606B080BD80B584B0E2
:100C700000AF78600A00BB1C1A800F23FB1800220B
:100C80001A707B681B8A9BB2BA1C128813409BB2F5
:100C9000002B04D00F23FB1801221A7003E00F234E
:100CA000FB1800221A700F23FB181B781800BD4692
:100CB00004B080BD80B582B000AF7860080011003C
:100CC000BB1C021C1A807B1C0A1C1A707B1C1B7824
:100CD000002B04D0BB1C1A887B689A6103E07B68F8
:100CE000BA1C12881A85C046BD4602B080BD80B5C8
:100CF00084B000AF786008001100BB1C021C1A8091
:100D00007B1C0A1C1A700023FB600023BB607B1C49
:100D10001A78BB1C1B8807210B409B009A401300CC
:100D2000FB60BB1C1B88DB089BB21800BB1C1B882C
:100D3000DB089BB21A007B6808329200D358BA1CB9
:100D4000128807210A4092000F2191400A00D243E5
:100D50001A4011007B68020008329200D150BB1C7F
:100D60001B88DB089BB21A007B6808329200D258BD
:100D7000FB681343BB60BB1C1B88DB089BB21A00DB
:100D80007B6808329200B968D150C046BD4604B0B5
:100D900080BD0000ABBE01E000207047002A00D0FB
:100DA00010600120704706980188034A914202D1E1
:100DB000043006907047FEE7ABBE000080B584B0FB
:100DC00000AF786039600E23FB1800221A800E23D2
:100DD000FB187A6812881A807B682D4A934208D0E3
:100DE0007A688023DB059A4203D07B68294A9342C4
:100DF00010D10E23FB180E22BA18128870218A43D4
:100E00001A803B6859880E23FB180E22BA181288E4
:100E10000A431A807B68204A934210D00E23FB18A5
:100E20000E22BA1812881D490A401A803B68198997
:100E30000E23FB180E22BA1812880A431A807B6808
:100E40000E22BA1812881A803B685A687B68DA62E8
:100E50003B681A887B681A857B680D4A93420BD0E1
:100E60007B680F4A934207D07B680E4A934203D0B7
:100E70007B680D4A934204D13B689B7A9AB27B68A7
:100E80001A867B6801229A82C046BD4604B080BDA6
:100E9000002C01400004004000100040FFFCFFFF58
:100EA00000400140004401400048014080B582B04C
:100EB00000AF78600A00FB1C1A70FB1C1B78002B2B
:100EC00008D07B681B889BB2802213439AB27B6850
:100ED0001A8007E07B681B889BB2802293439AB2FA
:100EE0007B681A80C046BD4602B080BD80B582B026
:100EF00000AF78600A00FB1C1A70FB1C1B78002BEB
:100F000008D07B681B889BB2012213439AB27B688E
:100F10001A8007E07B681B889BB2012293439AB238
:100F20007B681A80C046BD4602B080BD80B584B0E3
:100F300000AF786039600A23FB1800221A800E2364
:100F4000FB1800221A800C23FB1800221A807B68F1
:100F50001B8C9BB2012293439AB27B681A840E23A6
:100F6000FB187A68128C1A800C23FB187A68928816
:100F70001A800A23FB187A68128B1A800A23FB183E
:100F80000A22BA18128870218A431A800A23FB1891
:100F90000A22BA18128803218A431A803B681988EA
:100FA0000A23FB180A22BA1812880A431A800E2351
:100FB000FB180E22BA18128802218A431A803B6855
:100FC00099890E23FB180E22BA1812880A431A8038
:100FD0003B6859880E23FB180E22BA1812880A4360
:100FE0001A807B68344A93420BD07B68334A934221
:100FF00007D07B68324A934203D07B68314A9342E0
:1010000043D10E23FB180E22BA18128808218A43F6
:101010001A803B68D9890E23FB180E22BA18128851
:101020000A431A800E23FB180E22BA1812880421D4
:101030008A431A803B6899880E23FB180E22BA183F
:1010400012880A431A800C23FB180C22BA18128843
:101050001D490A401A800C23FB180C22BA1812886A
:101060001A490A401A803B68198A0C23FB180C2283
:10107000BA1812880A431A803B68598A0C23FB1855
:101080000C22BA1812880A431A807B680C22BA18FC
:1010900012889A807B680A22BA1812881A833B68E1
:1010A0009A687B685A637B680E22BA1812881A8481
:1010B000C046BD4604B080BD002C01400040014048
:1010C0000044014000480140FFFEFFFFFFFDFFFF1D
:1010D00080B584B000AF78600A00BB1C1A800E2374
:1010E000FB1800221A800E23FB187A68128B1A80D4
:1010F0000E23FB180E22BA18128808218A431A8080
:101100000E23FB180E22B918BA1C098812880A434C
:101110001A807B680E22BA1812881A83C046BD4610
:1011200004B080BD80B500AF1B4B1B4A1268012183
:101130000A431A60184B184A526818490A405A6004
:10114000154B154A126816490A401A60124B124A8A
:10115000126814490A401A600F4B0F4A526812492C
:101160000A405A600C4B0C4AD26A0F218A43DA6259
:10117000094B094A126B0D490A401A63064B064A8D
:10118000526B01218A435A63034B00229A6000F09C
:101190000FF8C046BD4680BD001002400CB8FFF8F5
:1011A000FFFFF6FEFFFFFBFFFFFFC0FFACFEFFFFF0
:1011B00080B582B000AF00237B6000233B60314BE1
:1011C000304A1268802149020A431A602D4B1A687E
:1011D00080239B0213403B607B6801337B603B684C
:1011E000002B04D17A68A023DB009A42EED1254B74
:1011F0001A6880239B02134002D001233B6001E068
:1012000000233B603B68012B38D11F4B11221A6031
:101210001C4B1C4A52685A601A4B1A4A52685A6050
:10122000184B184A526819490A405A60154B154A1A
:101230005268882149030A435A60124B114A1268C6
:10124000802149040A431A60C0460E4B1A68802365
:101250009B041340F9D00B4B0A4A526803218A437E
:101260005A60084B074A526802210A435A60C04636
:10127000044B5B680C221340082BF9D1C046BD46D5
:1012800002B080BD0010024000200240FF7FC0FF7E
:10129000FFFFFFFFFFFFFFFFFFFFFFFFFFFFFFFF5E
:1012A000FFFFFFFFFFFFFFFFFFFFFFFFFFFFFFFF4E
:1012B000FFFFFFFFFFFFFFFFFFFFFFFFFFFFFFFF3E
:1012C0000300000005000000000000000200000014
:1012D000FFFFFFFFFFFFFFFFFFFFFFFFFFFFFFFF1E
:0400000508000000EF
:00000001FF
