:020000040800F2
:1000000000180020190A00085D0A00087F0E000889
:1000100000000000000000000000000000000000E0
:100020000000000000000000000000005D0A000861
:1000300000000000000000005D0A00085D0A0008E2
:100040005D0A00085D0A00085D0A00085D0A0008F4
:100050005D0A00085D0A00085D0A00085D0A0008E4
:100060005D0A00085D0A00085D0A00085D0A0008D4
:100070005D0A00085D0A00085D0A00085D0A0008C4
:100080005D0A00085D0A00085D0A00085D0A0008B4
:100090005D0A00085D0A00085D0A00085D0A0008A4
:1000A0005D0A00085D0A00085D0A00085D0A000894
:1000B0005D0A00085D0A00085D0A00085D0A000884
:1000C0005FF808F180B582B000AF78600A00FB1CD1
:1000D0001A70FB1C1B78002B06D0094B084A51698B
:1000E0007A680A435A6106E0054B054A5269796805
:1000F000C9430A405A61C046BD4602B080BDC046F1
:100100000010024080B582B000AF78600A00FB1C8E
:100110001A70FB1C1B78002B06D0094B084AD169CA
:100120007A680A43DA6106E0054B054AD2697968C4
:10013000C9430A40DA61C046BD4602B080BDC04630
:100140000010024080B586B000AF786039600121B0
:100150000220FFF7D7FF0C23FB1800221A810C2383
:10016000FB1800225A807B685A1E0C23FB185A6029
:100170003B689BB2013B9AB20C23FB181A800C23FC
:10018000FB1800229A720C23FB18044A1900100075
:1001900000F080FEC046BD4606B080BD00040040B1
:1001A00080B58AB000AF78601423FB1860221A80F3
:1001B0001423FB1801225A801423FB1800229A8171
:1001C0001423FB18802252001A827B68013B1A001C
:1001D0001423FB189A601423FB181D4A1900100001
:1001E00000F010FF1A4B0821180000F0DDFF184B3B
:1001F0000121180000F0C6FE154B0121180000F087
:10020000E1FE8023DB0201211800FFF75BFF0C23D6
:10021000FB1800229A710C23FB1802221A710C237E
:10022000FB1810221A600C23FB1803225A710C23AE
:10023000FB18084A1900100000F0F1FC054B0122E0
:100240000421180000F0BFFDC046BD460AB080BDC5
:10025000000400400004004880B588B000AF78601A
:100260000C23FB1860221A800C23FB1801225A80F1
:100270000C23FB1800229A810C23FB1880225200C9
:100280001A827B68013B1A000C23FB189A600C232E
:10029000FB18074A1900100000F0B4FE044B0821B7
:1002A000180000F081FFC046BD4608B080BDC046C2
:1002B0000004004080B582B000AF0200FB1D1A7040
:1002C000064BFA1D127811001F220A4001219140AD
:1002D0000A001A60C046BD4602B080BD00E100E0E1
:1002E00090B59FB000AF00233B673423FB18D14A81
:1002F00013CA13C313CA13C313CA13C313CA13C332
:100300003B1DCC4A13CA13C313CA13C313CA13C366
:1003100013CA13C300F0A4FB96235B01C821180085
:10032000FFF710FF1020FFF7C5FF5F20FFF738FF32
:1003300000237B67EAE07B6F180000F015FC7B6F01
:10034000012B4ED0022B00D194E0002B00D0DAE03C
:10035000B94B0221180000F0F5FC031E04D0342331
:10036000FB1801225A6037E0B34B2021180000F03F
:10037000E9FC031E04D03423FB1801221A612BE090
:10038000AD4B4021180000F0DDFC031E04D03423E7
:10039000FB180122DA611FE0A74B8021180000F052
:1003A000D1FC031E04D03423FB1801229A6213E00F
:1003B0003423FB18012252425A603423FB180122D5
:1003C00052421A613423FB1801225242DA6134236B
:1003D000FB18012252429A626423FB1801221A6020
:1003E00091E0954B0221180000F0ACFC031E04D0F4
:1003F0003423FB1801229A6037E08F4B202118002C
:1004000000F0A0FC031E04D03423FB1801225A6123
:100410002BE0894B4021180000F094FC031E04D00F
:100420003423FB1801221A621FE0834B802118003D
:1004300000F088FC031E04D03423FB1801221A604C
:1004400013E03423FB18012252429A603423FB1834
:10045000012252425A613423FB18012252421A628D
:100460003423FB18012252421A606423FB18012234
:100470005A6048E0704B0221180000F063FC031E34
:1004800004D03423FB180122DA6037E06A4B2021C4
:10049000180000F057FC031E04D03423FB1801227F
:1004A0009A612BE0644B4021180000F04BFC031EC6
:1004B00004D03423FB1801225A621FE05E4B8021D6
:1004C000180000F03FFC031E04D03423FB18012267
:1004D000DA6213E03423FB1801225242DA6034233B
:1004E000FB18012252429A613423FB180122524226
:1004F0005A623423FB1801225242DA626423FB1849
:1005000001229A60C0467B6F01337B677B6F022BB1
:1005100000DC10E76423FB181B68002B00D186E089
:100520006423FB185B68002B00D180E06423FB1878
:100530009B68002B00D17AE000237B6708E06423EE
:10054000FB187A6F92000021D1507B6F01337B67DB
:100550007B6F022BF3DD00237B6765E03B1D7A6F29
:100560009200D2583423FB18796F8900CB589A42F5
:1005700057D03423FB187A6F9200D358013350D1EF
:100580007B6F092B15DC00233B670BE03B6F5A1C8C
:100590002A4B9200D158294B3A6F9200D1503B6FB1
:1005A00001333B673B6F022BF0DD244B7A6FDA603F
:1005B00037E07B6F0A2B0FD100233B6708E01F4B0E
:1005C0003A6F920001214942D1503B6F01333B67A2
:1005D0003B6F032BF3DD24E07B6F0B2B21D19023AA
:1005E000DB0500222021180000F0D0FB80235900F9
:1005F0009023DB050122180000F0C8FB802399003E
:100600009023DB050022180000F0C0FB8023D900F6
:100610009023DB050022180000F0B8FB00F078FA08
:10062000C6E17B6F01337B677B6F0B2B96DD00236D
:100630007B6711E0681300080004004810000020E8
:100640003423FB187A6F9200D1583B1D7A6F9200C9
:10065000D1507B6F01337B677B6F0B2BF0DD3B1D34
:100660001B68012B1CD19023DB05002201211800FF
:1006700000F08CFB9023DB0500220221180000F023
:1006800085FB9023DB0500220421180000F07EFB8F
:100690009023DB0500220821180000F077FB47E6D5
:1006A0003B1D5B68012B1CD19023DB05012201213E
:1006B000180000F06BFB9023DB05002202211800DC
:1006C00000F064FB9023DB0500220421180000F0F9
:1006D0005DFB9023DB0500220821180000F056FB8B
:1006E00026E63B1D9B68012B1CD19023DB050022D5
:1006F0000121180000F04AFB9023DB0501220221B2
:10070000180000F043FB9023DB05002204211800B1
:1007100000F03CFB9023DB0500220821180000F0CC
:1007200035FB05E63B1DDB68012B1CD19023DB0567
:1007300001220121180000F029FB9023DB05012292
:100740000221180000F022FB9023DB050022042187
:10075000180000F01BFB9023DB0500220821180085
:1007600000F014FBE4E53B1D1B69012B1CD1902319
:10077000DB0500220121180000F008FB9023DB05B7
:1007800000220221180000F001FB9023DB0501226A
:100790000421180000F0FAFA9023DB05002208215A
:1007A000180000F0F3FAC3E53B1D5B69012B1CD177
:1007B0009023DB0501220121180000F0E7FA9023C5
:1007C000DB0500220221180000F0E0FA9023DB058F
:1007D00001220421180000F0D9FA9023DB05002241
:1007E0000821180000F0D2FAA2E53B1D9B69012BFD
:1007F0001CD19023DB0500220121180000F0C6FA6D
:100800009023DB0501220221180000F0BFFA90239B
:10081000DB0501220421180000F0B8FA9023DB0563
:1008200000220821180000F0B1FA81E53B1DDB69C8
:10083000012B1CD19023DB0501220121180000F0BF
:10084000A5FA9023DB0501220221180000F09EFA90
:100850009023DB0501220421180000F097FA902371
:10086000DB0500220821180000F090FA60E53B1D2E
:100870001B6A012B1CD19023DB05002201211800EB
:1008800000F084FA9023DB0500220221180000F01A
:100890007DFA9023DB0500220421180000F076FA8F
:1008A0009023DB0501220821180000F06FFA3FE5D4
:1008B0003B1D5B6A012B1CD19023DB05012201212A
:1008C000180000F063FA9023DB05002202211800D3
:1008D00000F05CFA9023DB0500220421180000F0F0
:1008E00055FA9023DB0501220821180000F04EFA8A
:1008F0001EE53B1D9B6A012B1CD19023DB050022CA
:100900000121180000F042FA9023DB0501220221A8
:10091000180000F03BFA9023DB05002204211800A8
:1009200000F034FA9023DB0501220821180000F0C2
:100930002DFAFDE43B1DDB6A012B1CD19023DB0566
:1009400001220121180000F021FA9023DB05012289
:100950000221180000F01AFA9023DB05002204217E
:10096000180000F013FA9023DB050122082118007B
:1009700000F00CFADCE49023DB05002201211800D2
:1009800000F004FA9023DB0500220221180000F099
:10099000FDF99023DB0500220421180000F0F6F990
:1009A0009023DB0500220821180000F0EFF9BFE4D6
:1009B000174B8021180000F0C5F9031EF8D05F2006
:1009C000FFF74AFC00237B6708E03B1D7A6F92002B
:1009D00001214942D1507B6F01337B677B6F0B2B29
:1009E000F3DD00237B6708E00A4B7A6F9200012158
:1009F0004942D1507B6F01337B677B6F032BF3DD63
:100A00009023DB0500222021180000F0BFF98FE4BD
:100A10000004004810000020002103E00A4B5B584E
:100A20004350043109480A4B42189A42F6D3094A06
:100A300002E0002313600432074B9A42F9D300F01E
:100A4000DDFBFFF74DFC7047981300080000002005
:100A5000200000202000002020000020FEE70000F1
:100A600080B584B000AF80239B0201211800FFF7FE
:100A700029FB8023DB0201211800FFF723FB082359
:100A8000FB18E022D2001A600823FB1801221A7119
:100A90000823FB180122DA710823FB1801225A717E
:100AA0000823FA189023DB051100180000F0B7F8AE
:100AB0003B00E2221A603B0000221A713B00022236
:100AC000DA713B0001225A713B00104A19001000F4
:100AD00000F0A5F80823FB182F221A600823FB1842
:100AE00001221A710823FB180122DA710823FB186E
:100AF00001225A710823FA189023DB05110018000F
:100B000000F08DF8C046BD4604B080BD000400482A
:100B100080B500AF124B1A68124B1B689A421BD16A
:100B20000F4B5A680F4B5B689A4215D10C4B9A6871
:100B30000C4B9B689A420FD1094BDA68094BDB6872
:100B40009A4209D19023DB0501222021180000F0F0
:100B50001DF91E20FFF780FBC046BD4680BDC04684
:100B6000000000201000002080B582B000AF786047
:100B70007B68012B1DD0022B34D0002B00D04AE023
:100B8000802359009023DB050122180000F0FEF8B5
:100B9000802399009023DB050022180000F0F6F86E
:100BA0008023D9009023DB050022180000F0EEF826
:100BB00031E0802359009023DB050022180000F06B
:100BC000E5F8802399009023DB050122180000F04E
:100BD000DDF88023D9009023DB050022180000F007
:100BE000D5F818E0802359009023DB050022180077
:100BF00000F0CCF8802399009023DB050022180038
:100C000000F0C4F88023D9009023DB0501221800EE
:100C100000F0BCF8C046C046BD4602B080BD80B5FD
:100C200086B000AF7860396000237B6100233B61B0
:100C30000023FB6000237B617CE001227B699A40FA
:100C400013003B613B681B683A691340FB60FA681C
:100C50003B699A426BD13B681B79012B03D03B68FF
:100C60001B79022B34D17B689B687A69520003217F
:100C700091400A00D2431A407B689A607B689A6868
:100C80003B685B7919007B695B0099400B001A4354
:100C90007B689A607B689B889BB27A6992B21100EC
:100CA00001228A4092B2D24392B213409AB27B6838
:100CB0009A807B689B889AB23B689B7919007B6914
:100CC0009BB299400B009BB213439AB27B689A8007
:100CD0007B681B687A695200032191400A00D24365
:100CE0001A407B681A607B681A683B681B79190098
:100CF0007B695B0099400B001A437B681A607B6834
:100D0000DB687A6992B25200032191400A00D24313
:100D10001A407B68DA607B68DA683B68DB79190027
:100D20007B695B0099400B001A437B68DA607B6942
:100D300001337B617B690F2B00D87EE7C046BD463F
:100D400006B080BD80B584B000AF78600A00BB1CDF
:100D50001A800F23FB1800221A707B681B8A9BB233
:100D6000BA1C128813409BB2002B04D00F23FB182F
:100D700001221A7003E00F23FB1800221A700F23C0
:100D8000FB181B781800BD4604B080BD80B582B04A
:100D900000AF786008001100BB1C021C1A807B1C8D
:100DA0000A1C1A707B1C1B78002B04D0BB1C1A88F1
:100DB0007B689A6103E07B68BA1C12881A85C0467A
:100DC000BD4602B080BD80B584B000AF7860080039
:100DD0001100BB1C021C1A807B1C0A1C1A70002309
:100DE000FB600023BB607B1C1A78BB1C1B8807219F
:100DF0000B409B009A401300FB60BB1C1B88DB0868
:100E00009BB21800BB1C1B88DB089BB21A007B68D6
:100E100008329200D358BA1C128807210A40920067
:100E20000F2191400A00D2431A4011007B68020052
:100E300008329200D150BB1C1B88DB089BB21A0001
:100E40007B6808329200D258FB681343BB60BB1C1E
:100E50001B88DB089BB21A007B6808329200B968D5
:100E6000D150C046BD4604B080BD0000ABBE01E01D
:100E700000207047002A00D01060012070470698BB
:100E80000188034A914202D1043006907047FEE780
:100E9000ABBE000080B584B000AF786039600E232F
:100EA000FB1800221A800E23FB187A6812881A8019
:100EB0007B682D4A934208D07A688023DB059A42EA
:100EC00003D07B68294A934210D10E23FB180E22CF
:100ED000BA18128870218A431A803B6859880E23F9
:100EE000FB180E22BA1812880A431A807B68204A1F
:100EF000934210D00E23FB180E22BA1812881D49F7
:100F00000A401A803B6819890E23FB180E22BA1872
:100F100012880A431A807B680E22BA1812881A8037
:100F20003B685A687B68DA623B681A887B681A8576
:100F30007B680D4A93420BD07B680F4A934207D0DF
:100F40007B680E4A934203D07B680D4A934204D1DA
:100F50003B689B7A9AB27B681A867B6801229A82E8
:100F6000C046BD4604B080BD002C014000040040D6
:100F700000100040FFFCFFFF004001400044014022
:100F80000048014080B582B000AF78600A00FB1CC9
:100F90001A70FB1C1B78002B08D07B681B889BB247
:100FA000802213439AB27B681A8007E07B681B8813
:100FB0009BB2802293439AB27B681A80C046BD469A
:100FC00002B080BD80B582B000AF78600A00FB1C23
:100FD0001A70FB1C1B78002B08D07B681B889BB207
:100FE000012213439AB27B681A8007E07B681B8852
:100FF0009BB2012293439AB27B681A80C046BD46D9
:1010000002B080BD80B584B000AF786039600A233B
:10101000FB1800221A800E23FB1800221A800C23D2
:10102000FB1800221A807B681B8C9BB20122934321
:101030009AB27B681A840E23FB187A68128C1A8085
:101040000C23FB187A6892881A800A23FB187A68A6
:10105000128B1A800A23FB180A22BA1812887021F0
:101060008A431A800A23FB180A22BA18128803211D
:101070008A431A803B6819880A23FB180A22BA1887
:1010800012880A431A800E23FB180E22BA181288FF
:1010900002218A431A803B6899890E23FB180E228D
:1010A000BA1812880A431A803B6859880E23FB1825
:1010B0000E22BA1812880A431A807B68344A934277
:1010C0000BD07B68334A934207D07B68324A934205
:1010D00003D07B68314A934243D10E23FB180E2282
:1010E000BA18128808218A431A803B68D9890E23CE
:1010F000FB180E22BA1812880A431A800E23FB1816
:101100000E22BA18128804218A431A803B689988F3
:101110000E23FB180E22BA1812880A431A800C23D9
:10112000FB180C22BA1812881D490A401A800C2399
:10113000FB180C22BA1812881A490A401A803B6818
:10114000198A0C23FB180C22BA1812880A431A8039
:101150003B68598A0C23FB180C22BA1812880A43E0
:101160001A807B680C22BA1812889A807B680A223F
:10117000BA1812881A833B689A687B685A637B683E
:101180000E22BA1812881A84C046BD4604B080BD2B
:10119000002C014000400140004401400048014053
:1011A000FFFEFFFFFFFDFFFF80B584B000AF78605A
:1011B0000A00BB1C1A800E23FB1800221A800E2383
:1011C000FB187A68128B1A800E23FB180E22BA18AD
:1011D000128808218A431A800E23FB180E22B918A0
:1011E000BA1C098812880A431A807B680E22BA1832
:1011F00012881A83C046BD4604B080BD80B500AFDA
:101200001B4B1B4A126801210A431A60184B184AEB
:10121000526818490A405A60154B154A1268164917
:101220000A401A60124B124A126814490A401A60A6
:101230000F4B0F4A526812490A405A600C4B0C4A35
:10124000D26A0F218A43DA62094B094A126B0D49AF
:101250000A401A63064B064A526B01218A435A63BD
:10126000034B00229A6000F00FF8C046BD4680BDD7
:10127000001002400CB8FFF8FFFFF6FEFFFFFBFF77
:10128000FFFFC0FFACFEFFFF80B582B000AF0023C0
:101290007B6000233B60314B304A12688021490259
:1012A0000A431A602D4B1A6880239B0213403B604F
:1012B0007B6801337B603B68002B04D17A68A023F4
:1012C000DB009A42EED1254B1A6880239B02134023
:1012D00002D001233B6001E000233B603B68012B0F
:1012E00038D11F4B11221A601C4B1C4A52685A609D
:1012F0001A4B1A4A52685A60184B184A52681949D0
:101300000A405A60154B154A5268882149030A431E
:101310005A60124B114A1268802149040A431A602C
:10132000C0460E4B1A6880239B041340F9D00B4B28
:101330000A4A526803218A435A60084B074A526896
:1013400002210A435A60C046044B5B680C221340DA
:10135000082BF9D1C046BD4602B080BD0010024046
:1013600000200240FF7FC0FFFFFFFFFFFFFFFFFFE6
:10137000FFFFFFFFFFFFFFFFFFFFFFFFFFFFFFFF7D
:10138000FFFFFFFFFFFFFFFFFFFFFFFFFFFFFFFF6D
:08139000FFFFFFFFFFFFFFFF5D
:10139800030000000500000000000000020000003B
:1013A800FFFFFFFFFFFFFFFFFFFFFFFFFFFFFFFF45
:0400000508000000EF
:00000001FF
