:020000040800F2
:1000000000180020490B00088D0B0008A70F0008FE
:1000100000000000000000000000000000000000E0
:100020000000000000000000000000008D0B000830
:1000300000000000000000008D0B00088D0B000880
:100040008D0B00088D0B00088D0B00088D0B000830
:100050008D0B00088D0B00088D0B00088D0B000820
:100060008D0B00088D0B00088D0B00088D0B000810
:100070008D0B00088D0B00088D0B00088D0B000800
:100080008D0B00088D0B00088D0B0008310B00084C
:100090008D0B00088D0B00088D0B00088D0B0008E0
:1000A0008D0B00088D0B00088D0B00088D0B0008D0
:1000B0008D0B00088D0B00088D0B00088D0B0008C0
:1000C0005FF808F180B582B000AF78600A00FB1CD1
:1000D0001A70FB1C1B78002B06D0094B084A51698B
:1000E0007A680A435A6106E0054B054A5269796805
:1000F000C9430A405A61C046BD4602B080BDC046F1
:100100000010024080B582B000AF78600A00FB1C8E
:100110001A70FB1C1B78002B06D0094B084AD169CA
:100120007A680A43DA6106E0054B054AD2697968C4
:10013000C9430A40DA61C046BD4602B080BDC04630
:1001400000100240B0B582B000AF02003960FB1D64
:100150001A70FB1D1B787F2B32D92F4CFB1D1B788F
:100160001A000F231340083B99082B4AFB1D1B78EC
:1001700018000F230340083B9B0806339B00D3184D
:1001800004331B68FA1D1278100003220240D200CB
:10019000FF2090400200D2431A403B689B01FF20A1
:1001A0001840FB1D1B781D0003232B40DB009840EB
:1001B00003001A438B1D9B00E31804331A6027E0E9
:1001C000164CFB1D1B785BB29B081449FA1D127874
:1001D00052B29208C03292005258F91D09780800B4
:1001E00003210140C900FF2088400100C94311409C
:1001F0003A689201FF201040FA1D12781500032280
:100200002A40D200904002000A43C0339B001A519A
:10021000C046BD4602B0B0BD00ED00E000E100E028
:1002200080B586B000AF7860396001210220FFF709
:1002300069FF0C23FB1800221A810C23FB180022F3
:100240005A807B685A1E0C23FB185A603B689BB28D
:10025000013B9AB20C23FB181A800C23FB180022D6
:100260009A720C23FB18044A1900100000F0A6FE35
:10027000C046BD4606B080BD0004004080B58AB0CF
:1002800000AF78601423FB1860221A801423FB1837
:1002900001225A801423FB180022DA817B68013B7B
:1002A0001A001423FB189A601423FB181D4A190026
:1002B000100000F03BFF1B4B0821180001F008F86C
:1002C000184B0121180000F0F1FE164B0121180017
:1002D00000F00CFF8023DB0201211800FFF7F2FE83
:1002E0000C23FB1800229A710C23FB1802221A71AE
:1002F0000C23FB1810221A600C23FB1801225A71E0
:100300000C23FB18084A1900100000F01CFD064BD6
:1003100001220421180000F0EAFDC046BD460AB0E3
:1003200080BDC046000400400004004880B586B08F
:1003300000AF7860396080235B0001211800FFF76F
:10034000E1FE0C23FB1800221A810C23FB1810225B
:100350005A807B685A1E0C23FB185A603B689BB27C
:10036000013B9AB20C23FB181A800C23FB180022C5
:100370009A720C23FB180E4A1900100000F01EFEA2
:100380000B4B0121180000F0F6FF094B012201215F
:10039000180000F0C7FF00211320FFF7D3FE044B25
:1003A0000121180000F0A2FEC046BD4606B080BD87
:1003B0000020004080B582B000AF0200FB1D1A7023
:1003C000064BFA1D127811001F220A4001219140AC
:1003D0000A001A60C046BD4602B080BD00E100E0E0
:1003E00080B582B000AF0200FB1D1A70074AFB1DEA
:1003F0001B7819001F230B40012199400B001900A5
:100400008023D150C046BD4602B080BD00E100E06F
:1004100090B59FB000AF00233B670023FB663023FD
:10042000FB18D14A13CA13C313CA13C313CA13C385
:1004300013CA13C33B00CC4A13CA13C313CA13C352
:1004400013CA13C313CA13C300F0A2FBFA239A0002
:1004500096235B0111001800FFF7E2FE9623DB00F4
:100460001800FFF70BFFF0235B0064211800FFF773
:100470005DFF1320FFF79EFF00237B67EAE07B6FA1
:10048000180000F005FC7B6F012B4ED0022B00D131
:1004900094E0002B00D0DAE0B44B0221180000F009
:1004A000E5FC031E04D03023FB1801225A6037E01C
:1004B000AE4B2021180000F0D9FC031E04D03023DD
:1004C000FB1801221A612BE0A84B4021180000F014
:1004D000CDFC031E04D03023FB180122DA611FE09B
:1004E000A24B8021180000F0C1FC031E04D0302371
:1004F000FB1801229A6213E03023FB1801225242BA
:100500005A603023FB18012252421A613023FB1833
:1005100001225242DA613023FB18012252429A62D0
:100520006023FB1801221A6091E0904B0221180011
:1005300000F09CFC031E04D03023FB1801229A60BB
:1005400037E08A4B2021180000F090FC031E04D0F5
:100550003023FB1801225A612BE0844B4021180004
:1005600000F084FC031E04D03023FB1801221A6221
:100570001FE07E4B8021180000F078FC031E04D0A1
:100580003023FB1801221A6013E03023FB180122EC
:1005900052429A603023FB18012252425A613023A2
:1005A000FB18012252421A623023FB1801225242E8
:1005B0001A606023FB1801225A6048E06B4B02214D
:1005C000180000F053FC031E04D03023FB18012256
:1005D000DA6037E0654B2021180000F047FC031E6D
:1005E00004D03023FB1801229A612BE05F4B40219D
:1005F000180000F03BFC031E04D03023FB1801223E
:100600005A621FE0594B8021180000F02FFC031E96
:1006100004D03023FB180122DA6213E03023FB18E8
:1006200001225242DA603023FB18012252429A61C1
:100630003023FB18012252425A623023FB18012258
:100640005242DA626023FB1801229A60C0467B6F37
:1006500001337B677B6F022B00DC10E76023FB1804
:100660001B68002B00D18BE06023FB185B68002B1C
:1006700000D185E06023FB189B68002B00D17FE050
:1006800000237B6708E06023FB187A6F920000214B
:10069000D1507B6F01337B677B6F022BF3DD00232F
:1006A0007B676AE03B007A6F9200D2583023FB18D8
:1006B000796F8900CB589A425CD03023FB187A6F4F
:1006C0009200D358013355D17B6F092B15DC0223DF
:1006D0003B670BE03B6F5A1C254B396F8900C958AB
:1006E000234B9200D1503B6F013B3B673B6F002B8C
:1006F000F0DA1F4B7A6F1A603CE07B6F0A2B0AD14D
:100700001320FFF757FE9023DB050022202118005D
:1007100000F0D0FB2EE07B6F0B2B2BD11320FFF7CB
:100720005FFE9023DB0500222021180000F0C2FBB1
:10073000802359009023DB050122180000F0BAFB4A
:10074000802399009023DB050022180000F0B2FB03
:100750008023D9009023DB050022180000F0AAFBBB
:1007600000F06EFAC7E1C046041500080004004816
:10077000000000207B6F01337B677B6F0B2B91DDCB
:1007800000237B670BE03023FB187A6F9200D1586F
:100790003B007A6F9200D1507B6F01337B677B6F98
:1007A0000B2BF0DD3B001B68012B1CD19023DB05DC
:1007B00000220121180000F07DFB9023DB050022C0
:1007C0000221180000F076FB9023DB0500220421B3
:1007D000180000F06FFB9023DB05002208211800B1
:1007E00000F068FB48E63B005B68012B1CD19023BE
:1007F000DB0501220121180000F05CFB9023DB05E2
:1008000000220221180000F055FB9023DB05002296
:100810000421180000F04EFB9023DB050022082184
:10082000180000F047FB27E63B009B68012B1CD11A
:100830009023DB0500220121180000F03BFB9023F0
:10084000DB0501220221180000F034FB9023DB05B8
:1008500000220421180000F02DFB9023DB0500226C
:100860000821180000F026FB06E63B00DB68012BA0
:100870001CD19023DB0501220121180000F01AFB96
:100880009023DB0501220221180000F013FB9023C6
:10089000DB0500220421180000F00CFB9023DB058F
:1008A00000220821180000F005FBE5E53B001B696C
:1008B000012B1CD19023DB0500220121180000F040
:1008C000F9FA9023DB0500220221180000F0F2FA69
:1008D0009023DB0501220421180000F0EBFA90239D
:1008E000DB0500220821180000F0E4FAC4E53B0013
:1008F0005B69012B1CD19023DB050122012118002B
:1009000000F0D8FA9023DB0500220221180000F045
:10091000D1FA9023DB0501220421180000F0CAFA65
:100920009023DB0500220821180000F0C3FAA3E59C
:100930003B009B69012B1CD19023DB050022012188
:10094000180000F0B7FA9023DB05012202211800FD
:1009500000F0B0FA9023DB0501220421180000F01A
:10096000A9FA9023DB0500220821180000F0A2FA62
:1009700082E53B00DB69012B1CD19023DB050122C2
:100980000121180000F096FA9023DB0501220221D4
:10099000180000F08FFA9023DB05012204211800D3
:1009A00000F088FA9023DB0500220821180000F0EF
:1009B00081FA61E53B001B6A012B1CD19023DB050A
:1009C00000220121180000F075FA9023DB050022B7
:1009D0000221180000F06EFA9023DB0500220421AA
:1009E000180000F067FA9023DB05012208211800A7
:1009F00000F060FA40E53B005B6A012B1CD19023BC
:100A0000DB0501220121180000F054FA9023DB05D8
:100A100000220221180000F04DFA9023DB0500228D
:100A20000421180000F046FA9023DB05012208217A
:100A3000180000F03FFA1FE53B009B6A012B1CD118
:100A40009023DB0500220121180000F033FA9023E7
:100A5000DB0501220221180000F02CFA9023DB05AF
:100A600000220421180000F025FA9023DB05012262
:100A70000821180000F01EFAFEE43B00DB6A012B9F
:100A80001CD19023DB0501220121180000F012FA8D
:100A90009023DB0501220221180000F00BFA9023BD
:100AA000DB0500220421180000F004FA9023DB0586
:100AB00001220821180000F0FDF9DDE49023DB0598
:100AC00000220121180000F0F5F99023DB05002237
:100AD0000221180000F0EEF99023DB05002204212A
:100AE000180000F0E7F99023DB0500220821180028
:100AF00000F0E0F9C0E40D4B8021180000F0B6F9D9
:100B0000031EF8D000237B6708E03B007A6F920059
:100B100001214942D1507B6F01337B677B6F0B2BE7
:100B2000F3DD1320FFF746FCA6E4C04600040048AE
:100B300080B500AF034B0121180000F01CFCC0463B
:100B4000BD4680BD00200040002103E00A4B5B58F9
:100B50004350043109480A4B42189A42F6D3094AD5
:100B600002E0002313600432074B9A42F9D300F0ED
:100B700013FCFFF74DFC70473415000800000020FF
:100B8000100000201000002024000020FEE70000DC
:100B900080B584B000AF80239B0201211800FFF7CD
:100BA00091FA8023DB0201211800FFF78BFA08235A
:100BB000FB18E022D2001A600823FB1801221A71E8
:100BC0000823FB180122DA710823FB1801225A714D
:100BD0000823FA189023DB051100180000F0B3F881
:100BE0003B00E2221A603B0000221A713B00022205
:100BF000DA713B0001225A713B00104A19001000C3
:100C000000F0A1F80823FB182F221A600823FB1814
:100C100001221A710823FB180122DA710823FB183C
:100C200001225A710823FA189023DB0511001800DD
:100C300000F089F8C046BD4604B080BD00040048FD
:100C400080B500AF104B1A68104B1B689A4218D140
:100C50000D4B5A680D4B5B689A4212D10A4B9A6849
:100C60000A4B9B689A420CD1074BDA68074BDB684A
:100C70009A4206D19023DB0501222021180000F0C2
:100C800019F9C046BD4680BD1000002000000020BC
:100C900080B582B000AF78607B68012B1DD0022B3D
:100CA00034D0002B00D04AE0802359009023DB058C
:100CB0000122180000F0FEF8802399009023DB0544
:100CC0000022180000F0F6F88023D9009023DB05FD
:100CD0000022180000F0EEF831E080235900902344
:100CE000DB050022180000F0E5F88023990090232E
:100CF000DB050122180000F0DDF88023D9009023E5
:100D0000DB050022180000F0D5F818E08023590018
:100D10009023DB050022180000F0CCF88023990016
:100D20009023DB050022180000F0C4F88023D900CE
:100D30009023DB050122180000F0BCF8C046C04635
:100D4000BD4602B080BD80B586B000AF7860396026
:100D500000237B6100233B610023FB6000237B6158
:100D60007CE001227B699A4013003B613B681B6871
:100D70003A691340FB60FA683B699A426BD13B6861
:100D80001B79012B03D03B681B79022B34D17B6884
:100D90009B687A695200032191400A00D2431A40AD
:100DA0007B689A607B689A683B685B7919007B690D
:100DB0005B0099400B001A437B689A607B689B88B4
:100DC0009BB27A6992B2110001228A4092B2D24358
:100DD00092B213409AB27B689A807B689B889AB2E1
:100DE0003B689B7919007B699BB299400B009BB2D1
:100DF00013439AB27B689A807B681B687A695200B9
:100E0000032191400A00D2431A407B681A607B6834
:100E10001A683B681B7919007B695B0099400B00DD
:100E20001A437B681A607B68DB687A6992B2520069
:100E3000032191400A00D2431A407B68DA607B6844
:100E4000DA683B68DB7919007B695B0099400B002D
:100E50001A437B68DA607B6901337B617B690F2B06
:100E600000D87EE7C046BD4606B080BD80B584B0E0
:100E700000AF78600A00BB1C1A800F23FB18002209
:100E80001A707B681B8A9BB2BA1C128813409BB2F3
:100E9000002B04D00F23FB1801221A7003E00F234C
:100EA000FB1800221A700F23FB181B781800BD4690
:100EB00004B080BD80B582B000AF7860080011003A
:100EC000BB1C021C1A807B1C0A1C1A707B1C1B7822
:100ED000002B04D0BB1C1A887B689A6103E07B68F6
:100EE000BA1C12881A85C046BD4602B080BD80B5C6
:100EF00084B000AF786008001100BB1C021C1A808F
:100F00007B1C0A1C1A700023FB600023BB607B1C47
:100F10001A78BB1C1B8807210B409B009A401300CA
:100F2000FB60BB1C1B88DB089BB21800BB1C1B882A
:100F3000DB089BB21A007B6808329200D358BA1CB7
:100F4000128807210A4092000F2191400A00D243E3
:100F50001A4011007B68020008329200D150BB1C7D
:100F60001B88DB089BB21A007B6808329200D258BB
:100F7000FB681343BB60BB1C1B88DB089BB21A00D9
:100F80007B6808329200B968D150C046BD4604B0B3
:100F900080BD0000ABBE01E000207047002A00D0F9
:100FA00010600120704706980188034A914202D1DF
:100FB000043006907047FEE7ABBE000080B584B0F9
:100FC00000AF786039600E23FB1800221A800E23D0
:100FD000FB187A6812881A807B682D4A934208D0E1
:100FE0007A688023DB059A4203D07B68294A9342C2
:100FF00010D10E23FB180E22BA18128870218A43D2
:101000001A803B6859880E23FB180E22BA181288E2
:101010000A431A807B68204A934210D00E23FB18A3
:101020000E22BA1812881D490A401A803B68198995
:101030000E23FB180E22BA1812880A431A807B6806
:101040000E22BA1812881A803B685A687B68DA62E6
:101050003B681A887B681A857B680D4A93420BD0DF
:101060007B680F4A934207D07B680E4A934203D0B5
:101070007B680D4A934204D13B689B7A9AB27B68A5
:101080001A867B6801229A82C046BD4604B080BDA4
:10109000002C01400004004000100040FFFCFFFF56
:1010A00000400140004401400048014080B582B04A
:1010B00000AF78600A00FB1C1A70FB1C1B78002B29
:1010C00008D07B681B889BB2802213439AB27B684E
:1010D0001A8007E07B681B889BB2802293439AB2F8
:1010E0007B681A80C046BD4602B080BD80B582B024
:1010F00000AF78600A00FB1C1A70FB1C1B78002BE9
:1011000008D07B681B889BB2012213439AB27B688C
:101110001A8007E07B681B889BB2012293439AB236
:101120007B681A80C046BD4602B080BD80B584B0E1
:1011300000AF786039600A23FB1800221A800E2362
:10114000FB1800221A800C23FB1800221A807B68EF
:101150001B8C9BB2012293439AB27B681A840E23A4
:10116000FB187A68128C1A800C23FB187A68928814
:101170001A800A23FB187A68128B1A800A23FB183C
:101180000A22BA18128870218A431A800A23FB188F
:101190000A22BA18128803218A431A803B681988E8
:1011A0000A23FB180A22BA1812880A431A800E234F
:1011B000FB180E22BA18128802218A431A803B6853
:1011C00099890E23FB180E22BA1812880A431A8036
:1011D0003B6859880E23FB180E22BA1812880A435E
:1011E0001A807B68344A93420BD07B68334A93421F
:1011F00007D07B68324A934203D07B68314A9342DE
:1012000043D10E23FB180E22BA18128808218A43F4
:101210001A803B68D9890E23FB180E22BA1812884F
:101220000A431A800E23FB180E22BA1812880421D2
:101230008A431A803B6899880E23FB180E22BA183D
:1012400012880A431A800C23FB180C22BA18128841
:101250001D490A401A800C23FB180C22BA18128868
:101260001A490A401A803B68198A0C23FB180C2281
:10127000BA1812880A431A803B68598A0C23FB1853
:101280000C22BA1812880A431A807B680C22BA18FA
:1012900012889A807B680A22BA1812881A833B68DF
:1012A0009A687B685A637B680E22BA1812881A847F
:1012B000C046BD4604B080BD002C01400040014046
:1012C0000044014000480140FFFEFFFFFFFDFFFF1B
:1012D00080B584B000AF78600A00BB1C1A800E2372
:1012E000FB1800221A800E23FB187A68128B1A80D2
:1012F0000E23FB180E22BA18128808218A431A807E
:101300000E23FB180E22B918BA1C098812880A434A
:101310001A807B680E22BA1812881A83C046BD460E
:1013200004B080BD80B582B000AF786008001100C5
:10133000BB1C021C1A807B1C0A1C1A707B1C1B78AD
:10134000002B09D07B689B899AB2BB1C1B88134376
:101350009AB27B689A810AE07B689B899BB2BA1C2F
:101360001288D24392B213409AB27B689A81C046E7
:10137000BD4602B080BD80B582B000AF78600A0083
:10138000BB1C1A80BB1C1B88DB439AB27B681A8289
:10139000C046BD4602B080BD80B500AF1B4B1B4AA6
:1013A000126801210A431A60184B184A52681849FA
:1013B0000A405A60154B154A126816490A401A60CD
:1013C000124B124A126814490A401A600F4B0F4A16
:1013D000526812490A405A600C4B0C4AD26A0F21DB
:1013E0008A43DA62094B094A126B0D490A401A63B3
:1013F000064B064A526B01218A435A63034B002273
:101400009A6000F00FF8C046BD4680BD0010024053
:101410000CB8FFF8FFFFF6FEFFFFFBFFFFFFC0FF6A
:10142000ACFEFFFF80B582B000AF00237B600023DD
:101430003B60314B304A1268802149020A431A60EE
:101440002D4B1A6880239B0213403B607B6801335D
:101450007B603B68002B04D17A68A023DB009A42B2
:10146000EED1254B1A6880239B02134002D0012342
:101470003B6001E000233B603B68012B38D11F4BF0
:1014800011221A601C4B1C4A52685A601A4B1A4AA5
:1014900052685A60184B184A526819490A405A60F3
:1014A000154B154A5268882149030A435A60124B6A
:1014B000114A1268802149040A431A60C0460E4B43
:1014C0001A6880239B041340F9D00B4B0A4A5268D8
:1014D00003218A435A60084B074A526802210A4393
:1014E0005A60C046044B5B680C221340082BF9D1AC
:1014F000C046BD4602B080BD001002400020024040
:10150000FF7FC0FFFFFFFFFFFFFFFFFFFFFFFFFFAA
:10151000FFFFFFFFFFFFFFFFFFFFFFFFFFFFFFFFDB
:10152000FFFFFFFFFFFFFFFFFFFFFFFFFFFFFFFFCB
:04153000FFFFFFFFBB
:10153400FFFFFFFFFFFFFFFFFFFFFFFFFFFFFFFFB7
:0400000508000000EF
:00000001FF
