:020000040800F2
:1000000000180020F1090008350A0008570E000802
:1000100000000000000000000000000000000000E0
:10002000000000000000000000000000350A000889
:100030000000000000000000350A0008350A000832
:10004000350A0008350A0008350A0008350A000894
:10005000350A0008350A0008350A0008350A000884
:10006000350A0008350A0008350A0008350A000874
:10007000350A0008350A0008350A0008350A000864
:10008000350A0008350A0008350A0008350A000854
:10009000350A0008350A0008350A0008350A000844
:1000A000350A0008350A0008350A0008350A000834
:1000B000350A0008350A0008350A0008350A000824
:1000C0005FF808F180B582B000AF78600A00FB1CD1
:1000D0001A70FB1C1B78002B06D0094B084A51698B
:1000E0007A680A435A6106E0054B054A5269796805
:1000F000C9430A405A61C046BD4602B080BDC046F1
:100100000010024080B582B000AF78600A00FB1C8E
:100110001A70FB1C1B78002B06D0094B084AD169CA
:100120007A680A43DA6106E0054B054AD2697968C4
:10013000C9430A40DA61C046BD4602B080BDC04630
:100140000010024080B586B000AF786039600121B0
:100150000220FFF7D7FF0C23FB1800221A810C2383
:10016000FB1800225A807B685A1E0C23FB185A6029
:100170003B689BB2013B9AB20C23FB181A800C23FC
:10018000FB1800229A720C23FB18044A1900100075
:1001900000F06CFEC046BD4606B080BD00040040C5
:1001A00080B58AB000AF78601423FB1860221A80F3
:1001B0001423FB1801225A801423FB180022DA8131
:1001C0007B68013B1A001423FB189A601423FB1868
:1001D0002A4A1900100000F001FF284B08211800DE
:1001E00000F0CEFF254B0121180000F0B7FE234B95
:1001F0000121180000F0D2FE8023DB02012118004B
:10020000FFF760FF0C23FB1800229A710C23FB18E8
:1002100002221A710C23FB1810221A600C23FB18FF
:1002200001225A710C23FB18154A1900100000F026
:10023000E2FC0C23FB1800229A710C23FB1800220D
:100240001A710C23FB180222DA710C23FB182022EE
:100250001A600C23FB1801225A710C23FB18084A60
:100260001900100000F0C7FC054B01220421180002
:1002700000F095FDC046BD460AB080BD00040040B8
:100280000004004880B582B000AF0200FB1D1A7068
:10029000064BFA1D127811001F220A4001219140DD
:1002A0000A001A60C046BD4602B080BD00E100E011
:1002B00090B59FB000AF00233B673423FB18D24AB0
:1002C00013CA13C313CA13C313CA13C313CA13C362
:1002D0003B1DCD4A13CA13C313CA13C313CA13C396
:1002E00013CA13C300F0A8FB96235B01C8211800B2
:1002F000FFF728FFC54B1800FFF752FF1020FFF74C
:10030000C1FF00237B67EAE07B6F180000F018FC58
:100310007B6F012B4ED0022B00D194E0002B00D03C
:10032000DAE0BB4B0221180000F0F8FC031E04D0F9
:100330003423FB1801225A6037E0B54B2021180006
:1003400000F0ECFC031E04D03423FB1801221A61D8
:100350002BE0AF4B4021180000F0E0FC031E04D05E
:100360003423FB180122DA611FE0A94B8021180019
:1003700000F0D4FC031E04D03423FB1801229A623F
:1003800013E03423FB18012252425A603423FB1835
:10039000012252421A613423FB1801225242DA61CF
:1003A0003423FB18012252429A626423FB18012273
:1003B0001A6091E0964B0221180000F0AFFC031E7A
:1003C00004D03423FB1801229A6037E0904B20219F
:1003D000180000F0A3FC031E04D03423FB180122F4
:1003E0005A612BE08A4B4021180000F097FC031E55
:1003F00004D03423FB1801221A621FE0844B8021B1
:10040000180000F08BFC031E04D03423FB180122DB
:100410001A6013E03423FB18012252429A603423FD
:10042000FB18012252425A613423FB180122524226
:100430001A623423FB18012252421A606423FB180B
:1004400001225A6048E0724B0221180000F066FC5D
:10045000031E04D03423FB180122DA6037E06C4B12
:100460002021180000F05AFC031E04D03423FB188E
:1004700001229A612BE0664B4021180000F04EFCEF
:10048000031E04D03423FB1801225A621FE0604B84
:100490008021180000F042FC031E04D03423FB1816
:1004A0000122DA6213E03423FB1801225242DA609F
:1004B0003423FB18012252429A613423FB18012293
:1004C00052425A623423FB1801225242DA626423F8
:1004D000FB1801229A60C0467B6F01337B677B6FFC
:1004E000022B00DC10E76423FB181B68002B00D1F3
:1004F00086E06423FB185B68002B00D180E0642356
:10050000FB189B68002B00D17AE000237B6708E092
:100510006423FB187A6F92000021D1507B6F013366
:100520007B677B6F022BF3DD00237B6765E03B1D60
:100530007A6F9200D2583423FB18796F8900CB5818
:100540009A4257D03423FB187A6F9200D358013364
:1005500050D17B6F092B15DC00233B670BE03B6F11
:100560005A1C2C4B9200D1582A4B3A6F9200D15012
:100570003B6F01333B673B6F022BF0DD254B7A6FFE
:10058000DA6037E07B6F0A2B0FD100233B6708E06E
:10059000204B3A6F920001214942D1503B6F013309
:1005A0003B673B6F032BF3DD24E07B6F0B2B21D1EB
:1005B0009023DB0500222021180000F0D3FB8023CC
:1005C00059009023DB050122180000F0CBFB8023AB
:1005D00099009023DB050022180000F0C3FB802364
:1005E000D9009023DB050022180000F0BBFB00F0CF
:1005F0007BFAC9E17B6F01337B677B6F0B2B96DD49
:1006000000237B6714E0C04640130008F811000087
:1006100000040048100000203423FB187A6F920079
:10062000D1583B1D7A6F9200D1507B6F01337B67AD
:100630007B6F0B2BF0DD3B1D1B68012B1CD1902326
:10064000DB0500220121180000F08CFB9023DB0564
:1006500000220221180000F085FB9023DB05002218
:100660000421180000F07EFB9023DB050022082106
:10067000180000F077FB44E63B1D5B68012B1CD1A2
:100680009023DB0501220121180000F06BFB902371
:10069000DB0500220221180000F064FB9023DB053B
:1006A00000220421180000F05DFB9023DB050022EE
:1006B0000821180000F056FB23E63B1D9B68012B28
:1006C0001CD19023DB0500220121180000F04AFB19
:1006D0009023DB0501220221180000F043FB902348
:1006E000DB0500220421180000F03CFB9023DB0511
:1006F00000220821180000F035FB02E63B1DDB68F4
:10070000012B1CD19023DB0501220121180000F0F0
:1007100029FB9023DB0501220221180000F022FBB7
:100720009023DB0500220421180000F01BFB90231E
:10073000DB0500220821180000F014FBE1E53B1D59
:100740001B69012B1CD19023DB050022012118001D
:1007500000F008FB9023DB0500220221180000F0C6
:1007600001FB9023DB0501220421180000F0FAFAB6
:100770009023DB0500220821180000F0F3FAC0E501
:100780003B1D5B69012B1CD19023DB05012201215C
:10079000180000F0E7FA9023DB0500220221180080
:1007A00000F0E0FA9023DB0501220421180000F09C
:1007B000D9FA9023DB0500220821180000F0D2FAB4
:1007C0009FE53B1D9B69012B1CD19023DB0500227B
:1007D0000121180000F0C6FA9023DB050122022156
:1007E000180000F0BFFA9023DB0501220421180055
:1007F00000F0B8FA9023DB0500220821180000F071
:10080000B1FA7EE53B1DDB69012B1CD19023DB0592
:1008100001220121180000F0A5FA9023DB05012236
:100820000221180000F09EFA9023DB05012204212A
:10083000180000F097FA9023DB0500220821180029
:1008400000F090FA5DE53B1D1B6A012B1CD1902343
:10085000DB0500220121180000F084FA9023DB055B
:1008600000220221180000F07DFA9023DB0500220F
:100870000421180000F076FA9023DB0501220821FC
:10088000180000F06FFA3CE53B1D5B6A012B1CD1A0
:100890009023DB0501220121180000F063FA902368
:1008A000DB0500220221180000F05CFA9023DB0532
:1008B00000220421180000F055FA9023DB050122E4
:1008C0000821180000F04EFA1BE53B1D9B6A012B26
:1008D0001CD19023DB0500220121180000F042FA10
:1008E0009023DB0501220221180000F03BFA90233F
:1008F000DB0500220421180000F034FA9023DB0508
:1009000001220821180000F02DFAFAE43B1DDB6AF1
:10091000012B1CD19023DB0501220121180000F0DE
:1009200021FA9023DB0501220221180000F01AFAB7
:100930009023DB0500220421180000F013FA902315
:10094000DB0501220821180000F00CFAD9E49023FD
:10095000DB0500220121180000F004FA9023DB05DA
:1009600000220221180000F0FDF99023DB0500228F
:100970000421180000F0F6F99023DB05002208217D
:10098000180000F0EFF9BCE4174B8021180000F0CC
:10099000C5F9031EF8D0C820FFF702FC00237B67CF
:1009A00008E03B1D7A6F920001214942D1507B6FD4
:1009B00001337B677B6F0B2BF3DD00237B6708E044
:1009C0000A4B7A6F920001214942D1507B6F01336B
:1009D0007B677B6F032BF3DD9023DB050022202157
:1009E000180000F0BFF98CE400040048100000205B
:1009F000002103E00A4B5B584350043109480A4B7D
:100A000042189A42F6D3094A02E0002313600432E6
:100A1000074B9A42F9D300F0DDFBFFF749FC704722
:100A2000701300080000002020000020200000209B
:100A300020000020FEE7000080B584B000AF8023D6
:100A40009B0201211800FFF73DFB8023DB020121FF
:100A50001800FFF737FB0823FB18E022D2001A60CA
:100A60000823FB1801221A710823FB180122DA71EE
:100A70000823FB1801225A710823FA189023DB057A
:100A80001100180000F0B7F83B00E2221A603B00AA
:100A900000221A713B000222DA713B0001225A71D6
:100AA0003B00104A1900100000F0A5F80823FB18BD
:100AB0002F221A600823FB1801221A710823FB1841
:100AC0000122DA710823FB1801225A710823FA184F
:100AD0009023DB051100180000F08DF8C046BD46DC
:100AE00004B080BD0004004880B500AF124B1A6806
:100AF000124B1B689A421BD10F4B5A680F4B5B6815
:100B00009A4215D10C4B9A680C4B9B689A420FD1B4
:100B1000094BDA68094BDB689A4209D19023DB055F
:100B200001222021180000F01DF90120FFF738FBF9
:100B3000C046BD4680BDC046000000201000002019
:100B400080B582B000AF78607B68012B1DD0022B8E
:100B500034D0002B00D04AE0802359009023DB05DD
:100B60000122180000F0FEF8802399009023DB0595
:100B70000022180000F0F6F88023D9009023DB054E
:100B80000022180000F0EEF831E080235900902395
:100B9000DB050022180000F0E5F88023990090237F
:100BA000DB050122180000F0DDF88023D900902336
:100BB000DB050022180000F0D5F818E0802359006A
:100BC0009023DB050022180000F0CCF88023990068
:100BD0009023DB050022180000F0C4F88023D90020
:100BE0009023DB050122180000F0BCF8C046C04687
:100BF000BD4602B080BD80B586B000AF7860396078
:100C000000237B6100233B610023FB6000237B61A9
:100C10007CE001227B699A4013003B613B681B68C2
:100C20003A691340FB60FA683B699A426BD13B68B2
:100C30001B79012B03D03B681B79022B34D17B68D5
:100C40009B687A695200032191400A00D2431A40FE
:100C50007B689A607B689A683B685B7919007B695E
:100C60005B0099400B001A437B689A607B689B8805
:100C70009BB27A6992B2110001228A4092B2D243A9
:100C800092B213409AB27B689A807B689B889AB232
:100C90003B689B7919007B699BB299400B009BB222
:100CA00013439AB27B689A807B681B687A6952000A
:100CB000032191400A00D2431A407B681A607B6886
:100CC0001A683B681B7919007B695B0099400B002F
:100CD0001A437B681A607B68DB687A6992B25200BB
:100CE000032191400A00D2431A407B68DA607B6896
:100CF000DA683B68DB7919007B695B0099400B007F
:100D00001A437B68DA607B6901337B617B690F2B57
:100D100000D87EE7C046BD4606B080BD80B584B031
:100D200000AF78600A00BB1C1A800F23FB1800225A
:100D30001A707B681B8A9BB2BA1C128813409BB244
:100D4000002B04D00F23FB1801221A7003E00F239D
:100D5000FB1800221A700F23FB181B781800BD46E1
:100D600004B080BD80B582B000AF7860080011008B
:100D7000BB1C021C1A807B1C0A1C1A707B1C1B7873
:100D8000002B04D0BB1C1A887B689A6103E07B6847
:100D9000BA1C12881A85C046BD4602B080BD80B517
:100DA00084B000AF786008001100BB1C021C1A80E0
:100DB0007B1C0A1C1A700023FB600023BB607B1C99
:100DC0001A78BB1C1B8807210B409B009A4013001C
:100DD000FB60BB1C1B88DB089BB21800BB1C1B887C
:100DE000DB089BB21A007B6808329200D358BA1C09
:100DF000128807210A4092000F2191400A00D24335
:100E00001A4011007B68020008329200D150BB1CCE
:100E10001B88DB089BB21A007B6808329200D2580C
:100E2000FB681343BB60BB1C1B88DB089BB21A002A
:100E30007B6808329200B968D150C046BD4604B004
:100E400080BD0000ABBE01E000207047002A00D04A
:100E500010600120704706980188034A914202D130
:100E6000043006907047FEE7ABBE000080B584B04A
:100E700000AF786039600E23FB1800221A800E2321
:100E8000FB187A6812881A807B682D4A934208D032
:100E90007A688023DB059A4203D07B68294A934213
:100EA00010D10E23FB180E22BA18128870218A4323
:100EB0001A803B6859880E23FB180E22BA18128834
:100EC0000A431A807B68204A934210D00E23FB18F5
:100ED0000E22BA1812881D490A401A803B681989E7
:100EE0000E23FB180E22BA1812880A431A807B6858
:100EF0000E22BA1812881A803B685A687B68DA6238
:100F00003B681A887B681A857B680D4A93420BD030
:100F10007B680F4A934207D07B680E4A934203D006
:100F20007B680D4A934204D13B689B7A9AB27B68F6
:100F30001A867B6801229A82C046BD4604B080BDF5
:100F4000002C01400004004000100040FFFCFFFFA7
:100F500000400140004401400048014080B582B09B
:100F600000AF78600A00FB1C1A70FB1C1B78002B7A
:100F700008D07B681B889BB2802213439AB27B689F
:100F80001A8007E07B681B889BB2802293439AB249
:100F90007B681A80C046BD4602B080BD80B582B075
:100FA00000AF78600A00FB1C1A70FB1C1B78002B3A
:100FB00008D07B681B889BB2012213439AB27B68DE
:100FC0001A8007E07B681B889BB2012293439AB288
:100FD0007B681A80C046BD4602B080BD80B584B033
:100FE00000AF786039600A23FB1800221A800E23B4
:100FF000FB1800221A800C23FB1800221A807B6841
:101000001B8C9BB2012293439AB27B681A840E23F5
:10101000FB187A68128C1A800C23FB187A68928865
:101020001A800A23FB187A68128B1A800A23FB188D
:101030000A22BA18128870218A431A800A23FB18E0
:101040000A22BA18128803218A431A803B68198839
:101050000A23FB180A22BA1812880A431A800E23A0
:10106000FB180E22BA18128802218A431A803B68A4
:1010700099890E23FB180E22BA1812880A431A8087
:101080003B6859880E23FB180E22BA1812880A43AF
:101090001A807B68344A93420BD07B68334A934270
:1010A00007D07B68324A934203D07B68314A93422F
:1010B00043D10E23FB180E22BA18128808218A4346
:1010C0001A803B68D9890E23FB180E22BA181288A1
:1010D0000A431A800E23FB180E22BA181288042124
:1010E0008A431A803B6899880E23FB180E22BA188F
:1010F00012880A431A800C23FB180C22BA18128893
:101100001D490A401A800C23FB180C22BA181288B9
:101110001A490A401A803B68198A0C23FB180C22D2
:10112000BA1812880A431A803B68598A0C23FB18A4
:101130000C22BA1812880A431A807B680C22BA184B
:1011400012889A807B680A22BA1812881A833B6830
:101150009A687B685A637B680E22BA1812881A84D0
:10116000C046BD4604B080BD002C01400040014097
:101170000044014000480140FFFEFFFFFFFDFFFF6C
:1011800080B584B000AF78600A00BB1C1A800E23C3
:10119000FB1800221A800E23FB187A68128B1A8023
:1011A0000E23FB180E22BA18128808218A431A80CF
:1011B0000E23FB180E22B918BA1C098812880A439C
:1011C0001A807B680E22BA1812881A83C046BD4660
:1011D00004B080BD80B500AF1B4B1B4A12680121D3
:1011E0000A431A60184B184A526818490A405A6054
:1011F000154B154A126816490A401A60124B124ADA
:10120000126814490A401A600F4B0F4A526812497B
:101210000A405A600C4B0C4AD26A0F218A43DA62A8
:10122000094B094A126B0D490A401A63064B064ADC
:10123000526B01218A435A63034B00229A6000F0EB
:101240000FF8C046BD4680BD001002400CB8FFF844
:10125000FFFFF6FEFFFFFBFFFFFFC0FFACFEFFFF3F
:1012600080B582B000AF00237B6000233B60314B30
:10127000304A1268802149020A431A602D4B1A68CD
:1012800080239B0213403B607B6801337B603B689B
:10129000002B04D17A68A023DB009A42EED1254BC3
:1012A0001A6880239B02134002D001233B6001E0B7
:1012B00000233B603B68012B38D11F4B11221A6081
:1012C0001C4B1C4A52685A601A4B1A4A52685A60A0
:1012D000184B184A526819490A405A60154B154A6A
:1012E0005268882149030A435A60124B114A126816
:1012F000802149040A431A60C0460E4B1A688023B5
:101300009B041340F9D00B4B0A4A526803218A43CD
:101310005A60084B074A526802210A435A60C04685
:10132000044B5B680C221340082BF9D1C046BD4624
:1013300002B080BD0010024000200240FF7FC0FFCD
:10134000FFFFFFFFFFFFFFFFFFFFFFFFFFFFFFFFAD
:10135000FFFFFFFFFFFFFFFFFFFFFFFFFFFFFFFF9D
:10136000FFFFFFFFFFFFFFFFFFFFFFFFFFFFFFFF8D
:101370000300000005000000000000000200000063
:10138000FFFFFFFFFFFFFFFFFFFFFFFFFFFFFFFF6D
:0400000508000000EF
:00000001FF
